:020000040000fa
:080000000002040000000000f2
:020000040000fa
:040008001a030000d7
:020000040000fa
:04000c005c03000091
:020000040000fa
:04001000bc0300002d
:020000040000fa
:040014003a030000ab
:020000040000fa
:040018007c03000065
:020000040000fa
:04001c009c03000041
:020000040000fa
:04002000dc030000fd
:020000040000fa
:040024000a050000c9
:020000040000fa
:040028000a050000c5
:020000040000fa
:04002c000a050000c1
:020000040000fa
:040030000a050000bd
:020000040000fa
:040034000a050000b9
:020000040000fa
:040038000a050000b5
:020000040000fa
:04003c000a050000b1
:020000040000fa
:040040000a050000ad
:020000040000fa
:040044006e04000046
:020000040000fa
:040048009e04000012
:020000040000fa
:04004c000a050000a1
:020000040000fa
:040050000a0500009d
:020000040000fa
:040054000a05000099
:020000040000fa
:040058000a05000095
:020000040000fa
:04005c002e0400006e
:020000040000fa
:040060000a0500008d
:020000040000fa
:040064000a05000089
:020000040000fa
:04006800ec040000a4
:020000040000fa
:04006c00ce040000be
:020000040000fa
:040070000a0500007d
:020000040000fa
:040074000a05000079
:020000040000fa
:040078000a05000075
:020000040000fa
:04007c000a05000071
:020000040000fa
:040080000a0500006d
:020000040000fa
:040084000a05000069
:020000040000fa
:040088000a05000065
:020000040000fa
:04008c000a05000061
:020000040000fa
:040090000a0500005d
:020000040000fa
:040094000a05000059
:020000040000fa
:040098000a05000055
:020000040000fa
:04009c000a05000051
:020000040000fa
:0400a0000a0500004d
:020000040000fa
:0400a4000a05000049
:020000040000fa
:0400a8000a05000045
:020000040000fa
:0400ac000a05000041
:020000040000fa
:0400b0000a0500003d
:020000040000fa
:0400b4000a05000039
:020000040000fa
:0400b8000a05000035
:020000040000fa
:0400bc000a05000031
:020000040000fa
:0400c0000a0500002d
:020000040000fa
:0400c4000a05000029
:020000040000fa
:0400c8000a05000025
:020000040000fa
:0400cc000a05000021
:020000040000fa
:0400d0000a0500001d
:020000040000fa
:0400d4000a05000019
:020000040000fa
:0400d8000a05000015
:020000040000fa
:0400dc000a05000011
:020000040000fa
:0400e0000a0500000d
:020000040000fa
:0400e4000a05000009
:020000040000fa
:0400e8000a05000005
:020000040000fa
:0400ec000a05000001
:020000040000fa
:0400f0000a050000fd
:020000040000fa
:0400f4000a050000f9
:020000040000fa
:0400f8000a050000f5
:020000040000fa
:0400fc000a050000f1
:020000040000fa
:040100000a050000ec
:020000040000fa
:040104000a050000e8
:020000040000fa
:040108000a050000e4
:020000040000fa
:04010c000a050000e0
:020000040000fa
:040110000a050000dc
:020000040000fa
:040114000a050000d8
:020000040000fa
:040118000a050000d4
:020000040000fa
:04011c000a050000d0
:020000040000fa
:040120000a050000cc
:020000040000fa
:040124000a050000c8
:020000040000fa
:040128000a050000c4
:020000040000fa
:04012c000a050000c0
:020000040000fa
:040130000a050000bc
:020000040000fa
:040134000a050000b8
:020000040000fa
:040138000a050000b4
:020000040000fa
:04013c000a050000b0
:020000040000fa
:040140000a050000ac
:020000040000fa
:040144000a050000a8
:020000040000fa
:040148000a050000a4
:020000040000fa
:04014c000a050000a0
:020000040000fa
:040150000a0500009c
:020000040000fa
:040154000a05000098
:020000040000fa
:040158000a05000094
:020000040000fa
:04015c000a05000090
:020000040000fa
:040160000a0500008c
:020000040000fa
:040164000a05000088
:020000040000fa
:040168000a05000084
:020000040000fa
:04016c000a05000080
:020000040000fa
:040170000a0500007c
:020000040000fa
:040174000a05000078
:020000040000fa
:040178000a05000074
:020000040000fa
:04017c000a05000070
:020000040000fa
:040180000a0500006c
:020000040000fa
:040184000a05000068
:020000040000fa
:040188000a05000064
:020000040000fa
:04018c000a05000060
:020000040000fa
:040190000a0500005c
:020000040000fa
:040194000a05000058
:020000040000fa
:040198000a05000054
:020000040000fa
:04019c000a05000050
:020000040000fa
:0401a0000a0500004c
:020000040000fa
:0401a4000a05000048
:020000040000fa
:0401a8000804000047
:020000040000fa
:0401ac000a05000040
:020000040000fa
:0401b0000a0500003c
:020000040000fa
:0401b4000a05000038
:020000040000fa
:0401b8000a05000034
:020000040000fa
:0401bc000a05000030
:020000040000fa
:0401c0000a0500002c
:020000040000fa
:0401c4000a05000028
:020000040000fa
:0401c8000a05000024
:020000040000fa
:0401cc000a05000020
:020000040000fa
:0401d0000a0500001c
:020000040000fa
:0401d4000a05000018
:020000040000fa
:0401d8000a05000014
:020000040000fa
:0401dc000a05000010
:020000040000fa
:0401e0000a0500000c
:020000040000fa
:0401e4000a05000008
:020000040000fa
:0401e8000a05000004
:020000040000fa
:0401ec000a05000000
:020000040000fa
:0401f0000a050000fc
:020000040000fa
:0401f4000a050000f8
:020000040000fa
:0401f8000a050000f4
:020000040000fa
:0401fc000a050000f0
:020000040000fa
:040200000a050000eb
:020000040000fa
:040204000a050000e7
:020000040000fa
:040208000a050000e3
:020000040000fa
:04020c000a050000df
:020000040000fa
:040210000a050000db
:020000040000fa
:040214000a050000d7
:020000040000fa
:040218000a050000d3
:020000040000fa
:04021c000a050000cf
:020000040000fa
:040220000a050000cb
:020000040000fa
:040224000a050000c7
:020000040000fa
:040228000a050000c3
:020000040000fa
:04022c000a050000bf
:020000040000fa
:040230000a050000bb
:020000040000fa
:040234000a050000b7
:020000040000fa
:040238000a050000b3
:020000040000fa
:04023c000a050000af
:020000040000fa
:040240000a050000ab
:020000040000fa
:040244000a050000a7
:020000040000fa
:040248000a050000a3
:020000040000fa
:04024c000a0500009f
:020000040000fa
:040250000a0500009b
:020000040000fa
:040254000a05000097
:020000040000fa
:040258000a05000093
:020000040000fa
:04025c000a0500008f
:020000040000fa
:040260000a0500008b
:020000040000fa
:040264000a05000087
:020000040000fa
:040268000a05000083
:020000040000fa
:04026c000a0500007f
:020000040000fa
:040270000a0500007b
:020000040000fa
:040274000a05000077
:020000040000fa
:040278000a05000073
:020000040000fa
:04027c000a0500006f
:020000040000fa
:040280000a0500006b
:020000040000fa
:100400000f1c2100aefe21000e018800000000003c
:10041000000020000000e000020032000001200087
:100420002002880014000700a90107000000e00076
:1004300003003a00c0312200010020000200370012
:100440000000200001002000810f70000100320038
:100450000f000700000020000000e0000200320052
:100460000000020000000000841b020000000000e9
:100470000040da000000fe00001920000000e0004b
:1004800002003200002020009001880000000600d9
:10049000a1028800800478000000eb001f003700f4
:1004a000e284440054a0b4009905ba00e2844400f8
:1004b00054a0b4009906ba00e284440054a0b400e9
:1004c0000006eb00476fde00fd07b200ae018800ba
:1004d000636ce10003003a000ad801000000eb0061
:1004e0000e003700606ce10008003a00004deb00a0
:1004f0000a05e800020039003420ec000af0a000f0
:100500008b05e900f9ff3e00040037006168e10057
:10051000010032000086eb000b00070019c7ba008b
:100520000e04e0001905ba0003003a000a00e000da
:10053000dbff3a0000000600fe07b200ae028800b2
:100540008a047800f5ff37000cd0a300e20f4d00bd
:100550001c003b0089027800354dba000a05e8000e
:10056000020039003420ec000af0a0008b05e900fd
:100570000f003200254dba000a05e80002003900dc
:100580003420ec000af0a0008b05e90008003200de
:100590000c00e0000600320015cdba000a05e800a4
:1005a000020039003420ec000af0a0008b05e900bd
:1005b0008984e80054a0b4000b00e000e2ff3a0098
:1005c000000006009902ba00055d78008b05e9007d
:1005d000f7ff3200c82ade00055d78008b05e900d0
:1005e000f3ff32000c00e000f1ff320019ddba0029
:1005f000eeff3700000000000000000000000000d7
:1006000000000000000000000000000000000000ea
:1006100000000000000000000000000000000000da
:1006200000000000000000000000000000000000ca
:10063000000000003600f800809fbe00829fbe00d0
:10064000849fbe00869fbe000000fa00c028a9005b
:100650000000eb005f1007000080fa004f03be00af
:100660004f02be004f01be004f00be003600f90031
:10067000004006003600f800809fbe00829fbe004a
:10068000849fbe00869fbe000000fa00561007003f
:10069000c048a900100020004e1007000080fa009a
:1006a0004f03be004f02be004f01be004f00be0010
:1006b0003600f900004006003600f800809fbe00ba
:1006c000829fbe00849fbe00869fbe000000fa008d
:1006d000c068a900200020003e1007000080fa003a
:1006e0004f03be004f02be004f01be004f00be00d0
:1006f0003600f900004006003600f800809fbe007a
:10070000829fbe00849fbe00869fbe000000fa004c
:10071000c088a900300020002e1007000080fa00d9
:100720004f03be004f02be004f01be004f00be008f
:100730003600f900004006003600f800809fbe0039
:10074000829fbe00849fbe00869fbe000000fa000c
:10075000c0a8a900400020001e1007000080fa0079
:100760004f03be004f02be004f01be004f00be004f
:100770003600f900004006003600f800809fbe00f9
:10078000829fbe00849fbe00869fbe000000fa00cc
:10079000c608a900700020000e1007000080fa00b3
:1007a0004f03be004f02be004f01be004f00be000f
:1007b0003600f900004006003600f800809fbe00b9
:1007c000829fbe00849fbe00869fbe000000fa008c
:1007d0002146800000022000008060000000e00050
:1007e00003003200c4a8a90090002000f90f070000
:1007f00020468000700060000000e000030032002e
:10080000c488a900a0002000f20f0700ffff3700f6
:100810003600f800809fbe00829fbe00849fbe000d
:10082000869fbe000000fa00e08d80000000e0001e
:1008300002003200e08d8000000001000c08a900d9
:100840000080fa004f03be004f02be004f01be0001
:100850004f00be003600f900004006003600f800e8
:10086000809fbe00829fbe00849fbe00869fbe0008
:100870003200f8003400f80010002000a0018800c9
:100880000020200000d0fe000000fa00014080009f
:1008900000002200008060000000e000060032003e
:1008a000f08d80000000e00002003200f08d80003a
:1008b0000000010001a8a9000080fa003400f9003e
:1008c0003200f9004f03be004f02be004f01be00d0
:1008d0004f00be003600f900004006003600f80068
:1008e000809fbe00829fbe00849fbe00869fbe0088
:1008f0000000fa00908d80000000e000020032004d
:10090000908d800000000100b5d1bf000040e800dc
:10091000b5f1b70010c0b300b4f1b70000e8a9000a
:100920000080fa004f03be004f02be004f01be0020
:100930004f00be003600f900004006003600f80007
:10094000809fbe00829fbe00849fbe00869fbe0027
:100950000000fa00b08d80000000e00002003200cc
:10096000b08d800000000100b9d1bf000040e80058
:10097000b9f1b70010c0b300b8f1b7000108a90081
:100980000080fa004f03be004f02be004f01be00c0
:100990004f00be003600f900004006003600f800a7
:1009a000809fbe00829fbe00849fbe00869fbe00c7
:1009b0000000fa00408d8000000001000080fa0075
:1009c0004f03be004f02be004f01be004f00be00ed
:1009d0003600f900004006003600f800809fbe0097
:1009e000829fbe00849fbe00869fbe000000fa006a
:1009f000508d8000000001000080fa004f03be000f
:100a00004f02be004f01be004f00be003600f9008d
:100a1000004006000040da000000fe0000a0fe00da
:100a2000841f7800851f7800881f78008a1f78004f
:100a30004400f800080f20002802880000049000fd
:100a400010059000a000900030019000c0019000bf
:100a50000300ca000280ca000030cb001a00cd009b
:100a60004604c3000100ca004604c0001e04c000c2
:100a70000605c0000100cd0021009800050d78009a
:100a8000eaba9700052578004400f9004f05780080
:100a90004f047800cf0278004f0278000080fe00fb
:100aa00000000600801f78004000b0000008eb0046
:100ab0004f007800801f7800100090000018eb00b5
:100ac0000018eb000008eb004f0078000000060063
:100ad00000000500839f68000100e00002003d0067
:100ae00060001000e08018000300e00002003d00fc
:100af00060011100e0811900370007004f00e0009d
:100b000002003b0060001000e080180000000600ba
:100b10000001be001b0007000470a70003f0a10045
:100b200003f8a30013003a006509b1001000320079
:100b3000090035006928e1000200350001002800a5
:100b40000000050000004000818048008502e900a7
:100b5000fcff3a0000000600f88f42000500350057
:100b60008100d1000080d3008502e800fcff3a003c
:100b7000000006008000eb00000005006011b800d6
:100b800027013700c70ade00f107b200f50fb200f7
:100b900008003200e1cf4200020032000170a000e4
:100ba00024000500810f70000100320004080500d8
:100bb00044000500810f700002003a001400050097
:100bc0008502e9000000400081c04800fcff3b00b6
:100bd0000170a000240005006022b8000602200079
:100be0000000d0008180d2000482d2008582d20031
:100bf0000000a0000202520083825a00030031006c
:100c00000202420083824a000000a1000603e900bc
:100c1000f3ff3a0000000600038368000700280085
:100c200007036300470ade000480a100c71ade0044
:100c30000580a100f70f20000720e10042003200ec
:100c40000728e10040003200889fbe008a9fbe0056
:100c50008c1f7800f107b200f307b2000400e00037
:100c6000640032000170a0000500e000680032005e
:100c70000370a00085054200eb07b1000204b80034
:100c80000302b8008484440060854a00020ab80068
:100c9000848444000a854a00030ab800040545001c
:100ca000040033000804d0008984d2000a85d200f1
:100cb0008b05e9006158e1003d003500021020007d
:100cc000090161000308200089816100f707200005
:100cd0008783640008867300c84cde00c853dd00bb
:100ce000878474004855de000300e00006003200ef
:100cf00082037600040032008904e80060054d009c
:100d00000a88a3000c003a00f70f20000758e10002
:100d100044003d000a70a100c75ddd000a85750032
:100d20008a007300090078004f0678004f05be0066
:100d30004f04be00000006000a05d1008984d300dc
:100d40008b05e800f0ff3700881f78000604780064
:100d500090000700070278000001fd008101fd00fe
:100d60008c00070087027800850372000778a300d3
:100d7000050032000001fd008101fd009f00070019
:100d80004f04780000000600850372000748a300a6
:100d900003003200f0ff2f00f1ff2700f8ff3700bb
:100da0000000200001f8270088807000f4ff370061
:100db000880178004848dd00808171004848de00e5
:100dc000c850dd0001007000c850de000604780045
:100dd0000b0178001600070088807000d2ff3700f2
:100de0000500e00005003200170020003a0007006f
:100df0009dff370081037000f9ff3a0086007800fc
:100e00004f0678004f05be004f04be0000000500ed
:100e100083037100f9ff3200270020002e00070035
:100e200094ff370001f8270086807000f4ff370038
:100e30000100e00026003200610111007810e1009d
:100e400023003c006022b8007010e100040035006f
:100e500080027800010078008000eb0070015100f2
:100e60000200e0000900340070031100062add00d2
:100e7000822ade008603dd00878272000200de0027
:100e8000860bdd00070070008208de00848171009f
:100e9000f4ff2700048262008481710004002800ae
:100ea000848262006102600005f0a6000000060076
:100eb00004827100070032000000e800e080480072
:100ec000000006000002be006000b800efff37001f
:100ed0006000b80000000600889fbe000004eb0020
:100ee0006138e10016003a000100e00008003a0015
:100ef000c800de004800dd00880020000100e0009e
:100f000003003a00c800de004800dd006804440029
:100f10008184cf00e9845400060034008908dd0094
:100f2000f08314008703de00878070000900dd0075
:100f300009044400610214004f04be0000000600d2
:100f40000300e00008003a00c811de004811dd008f
:100f5000880020000300e00003003a00c811de0012
:100f60004811dd00680444008384cf00e984540004
:100f7000060034008919dd00f08314008713de00b9
:100f8000878171000911dd0009044400e1021400a9
:100f9000e9ff37002700200001f0a700170020001c
:100fa000470bde00f60fb200040032000643e800f3
:100fb0000a0032004702b300000006000103780077
:100fc000f607b2000603700002003a000703b30000
:100fd000000006008702b30000000600010378004d
:100fe000f607b20006037000020032000770a0008e
:100ff000000006000760a000000006000478a300bf
:10100000040032000578a300030032000168a30049
:1010100001003a000200be000160a00000000600ce
:10102000889fbe008a9fbe0000827000040271008b
:1010300004827100260032000004be000200be00df
:101040006011b8006b092000950220000182cf00da
:101050000a0039000541b1000082cf0007003900c5
:101060000541b1000982cf00040039000541b100fb
:101070000882cf00010039000541b100054252004d
:10108000120032000a003b0082817100610164009d
:101090008100d1000080d3008984d3000884d3006c
:1010a0008b05e8000442e800f7ff3a00070037002c
:1010b0000804440089844c000000480081804800f6
:1010c0008b05e9000442e900f9ff3a00030007003c
:1010d0004f05be004f04be00000006008100200046
:1010e000618055000b003d000b00200061fe2f00c9
:1010f0000100e1001d003400828171006101640083
:101100008904d1000884d3000000e800faff3a0007
:1011100071002000610064000300700002006000a4
:101120000900320061044400e0844c000988a500f5
:10113000050032008b05e8006808e10002003a0073
:101140008904d1000884d300f20f20000258e10086
:1011500005003d00c75ddd00f907b200898075001c
:1011600008007800000006000bf827008b007800cc
:041170000000050076
:020000040000fa
:101174000000000000000000000000008d000000de
:10118400bc000000eb0000001a010000490100004f
:1011940077010000a6010000d50100000302000051
:1011a40032020000600200008e020000bc02000057
:1011b400ea02000017030000440300007203000069
:1011c4009f030000cb030000f80300002404000088
:1011d400500400007c040000a7040000d2040000b6
:1011e400fd04000027050000510500007b050000f8
:1011f400a5050000ce050000f70500001f0600004d
:10120400470600006f06000096060000bd060000b9
:10121400e3060000090700002e0700005307000042
:10122400780700009c070000bf070000e3070000e8
:101234000508000027080000490800006a080000ab
:101244008a080000aa080000ca080000e908000093
:101254000709000025090000420900005f09000099
:101264007b09000096090000b1090000cb090000c9
:10127400e4090000fd090000160a00002d0a000020
:10128400440a00005b0a0000710a0000860a00009c
:101294009a0a0000ae0a0000c10a0000d30a000046
:1012a400e50a0000f60a0000060b0000160b000019
:1012b400250b0000330b0000400b00004d0b000019
:1012c400590b0000650b00006f0b0000790b000048
:1012d400820b00008b0b0000930b00009a0b0000a4
:1012e400a00b0000a50b0000aa0b0000ae0b000031
:1012f400b20b0000b40b0000b60b0000b70b0000eb
:10130400b80b0000b70b0000b60b0000b40b0000d4
:10131400b20b0000ae0b0000aa0b0000a50b0000ee
:10132400a00b00009a0b0000930b00008b0b000035
:10133400820b0000790b00006f0b0000650b0000ae
:10134400590b00004d0b0000400b0000330b000054
:10135400250b0000160b0000060b0000f60a000027
:10136400e50a0000d30a0000c10a0000ae0a00002a
:101374009a0a0000860a0000710a00005b0a000055
:10138400440a00002d0a0000160a0000fd090000ae
:10139400e4090000cb090000b1090000960900002f
:1013a4007b0900005f0900004209000025090000d4
:1013b40007090000e9080000ca080000aa080000a4
:1013c4008a0800006a080000490800002708000095
:1013d40005080000e3070000bf0700009c070000a9
:1013e40078070000530700002e07000009070000db
:1013f400e3060000bd060000960600006f0600002c
:10140400470600001f060000f7050000ce05000097
:10141400a50500007b05000051050000270500001c
:10142400fd040000d2040000a70400007c040000b6
:101434005004000024040000f8030000cb03000063
:101444009f03000072030000440300001703000020
:10145400ea020000bc0200008e02000060020000ec
:101464003202000003020000d5010000a6010000c2
:1014740077010000490100001a010000eb000000a0
:10148400bc0000008d00000000000000000000000f
:020000040000fa
:101494000200fa00000f78001e007800e20f5000ee
:1014a4000d003200e30f500014003200e10f500031
:1014b4001c003a00106180000090a000e3c12000ed
:1014c40011322400d2bc2a008209780081097800f4
:1014d4001061880014003700106280000090a000a2
:1014e400e3c1200011322400d2bc2a008209780012
:1014f40081097800106288000b00370010638000b7
:101504000090a000e3c1200011322400d2bc2a00c4
:1015140082097800810978001063880000000000c7
:1015240001003700000000000080fa0000000600ff
:101534000200fa00000f78001e007800e20f50004d
:101544000d003200e30f500014003200e10f500090
:101554001c003a00106180000080a000e3c120005c
:1015640011322400d2bc2a00820978008109780053
:101574001061880014003700106280000080a00011
:10158400e3c1200011322400d2bc2a008209780071
:1015940081097800106288000b0037001063800016
:1015a4000080a000e3c1200011322400d2bc2a0034
:1015b4008209780081097800106388000000000027
:1015c40001003700000000000080fa00000006005f
:1015d4000200fa00000f78001e007800e20f5000ad
:1015e4000d003200e30f500014003200e10f5000f0
:1015f4001c003a00106180000090a100e3c12000ab
:1016040011322400d2bc2a008209780081097800b2
:101614001061880014003700106280000090a1005f
:10162400e3c1200011322400d2bc2a0082097800d0
:1016340081097800106288000b0037001063800075
:101644000090a100e3c1200011322400d2bc2a0082
:101654008209780081097800106388000000000086
:1016640001003700000000000080fa0000000600be
:101674000200fa00000f78001e007800e20f50000c
:101684000d003200e30f500014003200e10f50004f
:101694001c003a00106180000080a100e3c120001a
:1016a40011322400d2bc2a00820978008109780012
:1016b4001061880014003700106280000080a100cf
:1016c400e3c1200011322400d2bc2a008209780030
:1016d40081097800106288000b00370010638000d5
:1016e4000080a100e3c1200011322400d2bc2a00f2
:1016f40082097800810978001063880000000000e6
:1017040001003700000000000080fa00000006001d
:101714000000fa000060fe00808580000000e80000
:10172400808588008185800040062000808f5000dd
:1017340003003a0010c0b30071f0b700b006070010
:1017440081858000700c2000808f500007003600d7
:10175400b030ef0010c0b3006df0b70010c0b3009c
:101764006ef0b70010c0b30070f0b700f9050700c1
:101774006cd0bf00e14f500002003a006304070040
:101784000100370001eca900c08380000000e800dc
:10179400c0838800c0838000f40f50000700360027
:1017a4007830ef00b08380000000e00003003200d6
:1017b400b08380000000e900b08388000080fa0054
:1017c400000006000000fa009904070053d0bf008f
:1017d4000004e0000200320020c0b30052f0b70061
:1017e400107080004a00de00614060000080fb0051
:1017f40000f0a7000000ea000000ea004f00de004d
:101804000040780064f0b700107080004700de00ec
:10181400614060000080fb0000f0a7000000ea00c7
:101824000000ea004f00de000040780065f0b700d9
:10183400107080004400de00614060000080fb0006
:1018440000f0a7000000ea000000ea004f00de00fc
:101854000040780066f0b700907080004900de0018
:10186400614060000080fb0000f0a7000000ea0077
:101874000000ea004f00de000040780067f0b70087
:10188400107180004600de00614060000080fb00b3
:1018940000f0a7000000ea000000ea004f00de00ac
:1018a4000040780068f0b70066d0bf000004e00094
:1018b4000300320010c0b30057f0b7000300370034
:1018c4005770ef0020c0b30052f0b70064d0bf00df
:1018d4000004e0000300320010c0b30058f0b70069
:1018e400010037005870ef0052d0bf000080fb00a9
:1018f400e10f50001c003200e20f50001f003200c4
:101904000000e0009b003a00a08380000000e0009b
:101914000c003a00608680002088880070d0bf00e8
:10192400e14f500007003a007070ef0021888000fa
:10193400b0f52400010050007088880010002000d9
:10194400a083880010c0b3006cf0b70001eca800bd
:1019540010c0b30059f0b7005006070010c0b30020
:1019640052f0b7008300370020c0b30059f0b7002d
:1019740010c0b30056f0b7007e0037000060fe00d0
:101984004e30ef007430ef006c70ef000a2cef0063
:1019940001eca90020c0b30056f0b700244ea90002
:1019a40057d0bf00e14f500011003a0053d0bf00a0
:1019b4000004e0000e003a00308480000000e800db
:1019c4003084880050c0b30059f0b70031848000df
:1019d400f0702200808f500004003600f0050700ec
:1019e400052ea9005270ef008630ef005f0037002b
:1019f40057d0bf00e14f500056003a0053d0bf000b
:101a04000004e000530032008630ef0053d0bf00e2
:101a1400e14f500004003a00e08480000000e80038
:101a2400e08488003900370053d0bf00e24f5000f3
:101a340004003a00f08480000000e800f08488008c
:101a44003200370053d0bf00e34f500004003a0087
:101a5400008580000000e800008588002b00370026
:101a640053d0bf00e44f500004003a0010858000ba
:101a74000000e800108588002400370053d0bf0020
:101a8400e54f500004003a00208580000000e80083
:101a9400208588001d00370053d0bf00e64f50005a
:101aa40004003a00308580000000e800308588009a
:101ab4001600370053d0bf00e74f500004003a002f
:101ac400408580000000e800408588000f00370052
:101ad40053d0bf00e84f500004003a005085800006
:101ae4000000e800508588000800370053d0bf008c
:101af400e94f500004003a00608580000000e800cf
:101b040060858800010037005370ef0073d0bf0078
:101b1400e14f50000e003a0072d0bf000004e00014
:101b24000b003a00d08480000000e800d0848800d4
:101b3400d184800000e22400808f5000040036002d
:101b440010c0b30072f0b7005370ef009a30ef008a
:101b54000600370057d0bf000004e00004003a003c
:101b64005970ef005670ef00020037000100370093
:101b74000000000056d0bf000080fb00e10f5000c1
:101b840008003200e20f5000090032000000e000bb
:101b940013003a00244ea900052ea900246ea900c2
:101ba4000f003700244ea800052ea9000c003700b2
:101bb400244ea90053d0bf00e24f500004003a0065
:101bc400052ea80040c0b30059f0b7000400370048
:101bd400052ea90030c0b30059f0b7000000000082
:101be40053d0bf0054f0b700e08380000000e80049
:101bf400e0838800e1838000007d2000808f500016
:101c0400600036007c30ef000105070059d0bf00aa
:101c14000080fb00e20f500021003200e20f500070
:101c240005003c000000e0000a003200e10f500013
:101c34000c00320053003700e40f50003f00320024
:101c4400e40f50001a003500e50f50003f00320049
:101c54004c003700252ea800250ea80024eea8006d
:101c64004800370024eea800250ea800207180004b
:101c74004900de00614060000004a2006140600091
:101c84000080fb00610060004900dd0021718000dc
:101c94000190a10001007000207188003900370014
:101ca400250ea80024eea800252ea9003500370033
:101cb400252ea800f08380000000e800f08388004f
:101cc400f0838000e10f5000080036007e30ef0002
:101cd400008480000000e800008488000084800004
:101ce400eb0f5000010036008030ef0054d0bf00ed
:101cf4000080fb0001848000810f50000d0036003d
:101d0400207180004800de00614060000004a200f1
:101d1400614060000080fb00610060004800dd005d
:101d2400217180000180a1000100700020718800f1
:101d340014003700250ea80012003700252ea80035
:101d4400250ea80024eea9000e00370024eea800fa
:101d5400250ea800207180004900de00614060006b
:101d64000004a200614060000080fb00610060008c
:101d74004900dd00217180000190a1000100700084
:101d840020718800d08380000000e800d0838800a0
:101d9400d1838000800c2000808f50000100360029
:101da4007a30ef0021868000906c2200808f5000f2
:101db4000c00360057d0bf00e14f500009003a0034
:101dc400708580000000e8007085880071858000bf
:101dd40000712200808f500004003600246ea80099
:101de40002003700246ea900ae30ef000080fa0034
:101df400000006000200fa00000f78009e00780040
:101e0400b183880000000000b08380000000e0007f
:101e1400fdff3a000080fa00000006000000fa000e
:101e240010c0b30055f0b7000080fa0000000600af
:101e34000000fa0071d0bf00e14f500010003a00da
:101e44007170ef00001880004500dd00e085880017
:101e5400101880004500dd00f085880020188000ff
:101e64004500dd0010868800301880004500dd0044
:101e740000868800401880004500dd002086880028
:101e8400018680002088800000805000008888003f
:101e94001086800010888800008880000000e00020
:101ea4000300350000888000408888000300370064
:101eb400008880000000ea004088880010888000c4
:101ec4000000e0000300350010888000508888007e
:101ed40003003700108880000000ea005088880062
:101ee40052d0bf00e24f50000d0032004088800005
:101ef40001898000810f5000020036004088800074
:101f04000089880050888000d1898000810f5000aa
:101f14000500360050888000d08988000200370010
:101f24002031ef003a31ef00408880006101b900b0
:101f340090898000a18980000201400083814800cb
:101f440036d1bf000080fb00800040002012210039
:101f540000804000100078008000eb000000510079
:101f64008180590090898800a18988009089800027
:101f7400a18980004d09dd004300de0000007100ee
:101f8400c308de0000007800f088880036d1bf0066
:101f94008080fb004288800082017800018140003b
:101fa4002112210081004100830878000040e800ec
:101fb40036f1b70036d1bf00e74f500001003600bc
:101fc4003671ef00508880006101b900608a80009a
:101fd400718a8000020140008381480050d1bf0013
:101fe4000080fb0080004000c013210000804000fe
:101ff400100078008000eb0000005100818059003f
:10200400608a8800718a8800608a8000718a8000f2
:102014004d09dd004300de0000007100c308de004e
:1020240000007800c089880050d1bf008080fb0088
:10203400528880008201780001814000c113210090
:1020440081004100830878000040e80050f1b700a7
:1020540050d1bf00e74f5000010036005071ef002f
:10206400f188800070888000808f50001200360054
:1020740052d0bf00e14f50000f003a0073d0bf00b0
:10208400e14f500005003a0072d0bf00e14f50000c
:1020940002003a0001eca90040a7a90053d0bf00f8
:1020a4000004e00004003a0010c0b30073f0b7006d
:1020b40050c0b30053f0b700e0858000208788004b
:1020c400208780006101b8008086800091868000ae
:1020d4000200400083804800808688009186880042
:1020e4008286800093868000308680008000eb002a
:1020f4000000510081805900808688009186880004
:102104008086800091868000021920000300200050
:10211400b0fa07000000780030868800f08580005f
:1021240030878800308780006101b800a086800075
:10213400b18680000200400083804800a0868800a9
:10214400b1868800a2868000b38680004086800025
:102154008000eb000000510081805900a0868800b7
:10216400b1868800a0868000b18680000219200014
:102174000300200097fa07000000780040868800da
:102184001086800040878800408780006101b80085
:10219400c0868000d1868000020040008380480011
:1021a400c0868800d1868800c2868000d3868000dd
:1021b400508680008000eb000000510081805900af
:1021c400c0868800d1868800c0868000d1868000c1
:1021d40002192000030020007efa070000007800a6
:1021e40050868800008680005087880050878000d1
:1021f4006101b800e0868000f186800002004000a2
:1022040083804800e0868800f1868800e2868000aa
:10221400f3868000608680008000eb00000051009f
:1022240081805900e0868800f1868800e08680007d
:10223400f1868000021920000300200065fa0700df
:10224400000078006086880020868000608788000f
:10225400608780006101b8000087800011878000da
:1022640002004000838048000087880011878800ae
:102274000287800013878000708680008000eb0056
:102284000000510081805900008788001187880070
:1022940000878000118780000219200003002000bd
:1022a4004cfa07000000780070868800818780005f
:1022b4003086800001017800f1ff270067000700e5
:1022c400e08b8800918780004086800001017800bf
:1022d400f1ff270012000700d08b8800a18780003f
:1022e400c089800001017800f1ff2700aa000700df
:1022f400f08b8800f0888000f6000700008c8800ce
:10230400c18780007086800001017800f1ff2700fa
:102314002c010700108c88000080fa0000000600e1
:102324001400fa00ee0147008009780070004700ad
:102334000108780072004700020878006400470032
:10234400ee0047001108780066004700f0004700df
:102354001108780068004700f2004700110878006f
:10236400640047009000780068004700100078007f
:102374000080500000f0a7000000ea00000f780081
:102384001e0078000000e00002003d00f0ff27007e
:10239400000f78009e00780040ce20008088b900ad
:1023a400e60047009100780001017800110009005f
:1023b4000280d8008000fd006a0047000108780010
:1023c4006a00470010007800f100b900800078002e
:1023d4006a004700010878006a004700100178008d
:1023e400d0cc2c000010b8004308de00ea00b9008d
:1023f400800051006c004700010878006c00470021
:1024040010007800e50f5000090036006a0047000c
:1024140010007800e5004000d0cc2c000008b80083
:10242400c308de000e80e8000108780007003700ca
:102434006a00470090007800d0cc2c000008b80057
:10244400c308de000e80e800010878000e80e80072
:10245400100078000080fa00000006001800fa005e
:10246400f2014700800978007400470001087800f1
:1024740076004700020878000e80e800f20047006a
:102484001108780064004700f40047001108780040
:1024940066004700f6004700110878000e80e80047
:1024a400900078006600470010007800008050001b
:1024b40000f0a7000000ea00000f78001e0078007a
:1024c4000000e00002003d00f0ff2700000f78004c
:1024d4001e0078008000eb00a7f9070012302100ed
:1024e400e3d82300cbf90700680147000089be0048
:1024f4006800470002002000a347240090009000d9
:1025040010007800c3f9070080f907006c01470048
:10251400000978006c00470010017800d0cc2c0032
:102524000010b8004308de00ea00b9008000510042
:102534006e004700010878006e0047001000780024
:10254400e50f5000090036006c00470010007800c9
:10255400e5004000d0cc2c000008b800c308de0021
:102564007000470001087800070037006c0047003e
:1025740090007800d0cc2c000008b800c308de001e
:1025840070004700010878006c00470010007800d4
:102594000080fa00000006001400fa00ee01470073
:1025a4008009780070004700010878007200470035
:1025b4000208780064004700ee0047001108780024
:1025c40066004700f00047001108780068004700e3
:1025d400f20047001108780064004700900078007a
:1025e40068004700100078000080500000f0a70049
:1025f4000000ea00000f78001e0078000000e000f0
:1026040002003d00f0ff2700000f78009e007800d4
:1026140040ce20008088b900e60047009100780091
:1026240001017800110009000280d8008000fd003b
:102634006a004700010878006a004700100078002b
:10264400ea00b900800078006a00470001087800b9
:102654006a00470010017800d0cc2c000010b800ac
:102664004308de00ea00b900800051006c00470016
:10267400010878006c00470010007800e50f500056
:10268400090036006a00470010007800e5004000a9
:10269400d0cc2c000008b800c308de000e80e8008f
:1026a40001087800070037006a00470090007800ae
:1026b400d0cc2c000008b800c308de000e80e8006f
:1026c400010878000e80e800100078000080fa000d
:1026d400000006000e00fa00ec00470080087800b5
:1026e4006c004700100f78001e0078000000e00026
:1026f40002003d00f0ff2700000f78001e00780064
:102704008000eb001cf907000200200083ac2300ca
:1027140040f90700640147000089be0064004700d7
:1027240002002000a34724009000900010007800cd
:1027340038f90700f5f80700680147000009780038
:102744006800470010017800d0cc2c000010b800bd
:102754004308de00ea00b900800051006a00470027
:10276400010878006a00470010007800e50f500067
:10277400090036006800470010007800e5004000ba
:10278400d0cc2c000008b800c308de000e80e8009e
:1027940001087800070037006800470090007800bf
:1027a400d0cc2c000008b800c308de000e80e8007e
:1027b400010878000e80e800100078000080fa001c
:1027c400000006001600fa00f001470080097800b6
:1027d400720047000108780074004700020878007e
:1027e40064004700f00047001108780066004700c5
:1027f400f20047001108780068004700f400470021
:1028040011087800640047009000780068004700d1
:10281400100078000080500000f0a7000000ea00db
:10282400000f78001e0078000000e00002003d0068
:10283400f0ff2700000f78009e00780040ce2000b3
:102844008088b900e6004700910078000101780013
:10285400110009000280d8008000fd006a004700d2
:10286400010878006a00470010007800c1e02f00da
:1028740080804000d0cc2c000008b800c308de00e3
:102884006c004700010878006c00470010017800d4
:10289400d0cc2c000010b8004308de00ea00b900d8
:1028a400800051006e004700010878006e00470068
:1028b40010007800e50f5000090036006c00470056
:1028c40010007800e5004000d0cc2c000008b800cf
:1028d400c308de000e80e800010878000700370016
:1028e4006c00470090007800d0cc2c000008b800a1
:1028f400c308de000e80e800010878000e80e800be
:10290400100078000080fa00000006000000fa00c1
:102914005ad0bf000080fb00e10f50001b003200c2
:10292400e10f500003003c000000e000060032000c
:1029340030003700e20f500017003200e30f500060
:10294400260032002b003700238ca90023aca900f9
:1029540020002000cefa070020002000f4fa07002f
:10296400300020001afb07003000200040fb070065
:102974006dd0bf00e14f50001b003a006d70ef00b6
:1029840010c0b3005af0b7001a00370020c0b300db
:102994005af0b70017003700238ca80023aca80016
:1029a40030002000bafa070030002000e0fa0700e7
:1029b4002000200006fb0700200020002cfb07005d
:1029c4006dd0bf00e14f500009003a006d70ef0078
:1029d40030c0b3005af0b700060037005a70ef0059
:1029e4000000000003003700000000000100370071
:1029f400000000000080fa00000006000000fa0059
:102a04003086800080878800408680009087880018
:102a140050868000a087880000002400b0878800ca
:102a240070868000c08788000080fa0000000600dd
:102a34000000fa005570ef00318680000006240083
:102a4400808f5000120036005ed0bf000004e0000a
:102a54000f003a00708480000000e8007084880051
:102a64007184800040062000808f500021003600d1
:102a740053d0bf000004e0001b003a0040c0b30084
:102a840053f0b70010c0b3005ef0b7001900370070
:102a940031868000b0192000808f500010003e0065
:102aa4005ed0bf00e14f50000d003a0070848000fa
:102ab4000000e800708488007184800000e2240033
:102ac400808f50000b0036005e70ef0053d0bf00c3
:102ad400e44f500006003a005370ef000500370041
:102ae4008e30ef00030037000000000001003700c3
:102af4000000000041868000a0d92300808f500090
:102b0400120036005bd0bf000004e0000f003a0062
:102b1400508480000000e8005084880051848000c4
:102b240000712200808f50002100360053d0bf0076
:102b34000004e0001b003a0010c0b30053f0b700db
:102b440010c0b3005bf0b700190037004186800065
:102b540090902300808f500010003e005bd0bf0097
:102b6400e14f50000d003a00508480000000e8005e
:102b7400508488005184800000e22400808f50003b
:102b84000b0036005b70ef0053d0bf00e14f5000e4
:102b940006003a005370ef00050037008a30ef005a
:102ba40003003700000000000100370000000000af
:102bb4004186800010da2200808f500012003e000f
:102bc4005cd0bf000004e0000f003a0040848000a5
:102bd4000000e800408488004184800000712200e5
:102be400808f50002100360053d0bf000004e00065
:102bf4001b003a0020c0b30053f0b70010c0b3006c
:102c04005cf0b700190037004186800020232300c0
:102c1400808f5000100036005cd0bf00e14f5000a0
:102c24000d003a00408480000000e80040848800e1
:102c34004184800000e22400808f50000b003600a5
:102c44005c70ef0053d0bf00e24f500006003a0022
:102c54005370ef00050037008830ef0003003700a1
:102c640000000000010037000000000051868000d1
:102c7400e07b2400808f5000120036005dd0bf003e
:102c84000004e0000f003a00608480000000e800c7
:102c9400608488006184800040062000808f50009a
:102ca4002100360053d0bf000004e0001b003a00ae
:102cb40030c0b30053f0b70010c0b3005df0b700ec
:102cc4001900370051868000d07b2400808f50008b
:102cd40010003e005dd0bf00e14f50000d003a00ef
:102ce400608480000000e8006084880061848000c3
:102cf40000e22400808f50000b0036005d70ef006e
:102d040053d0bf00e34f500006003a005370ef0069
:102d1400050037008c30ef0003003700000000008e
:102d2400010037000000000071868000906c2200d2
:102d3400808f50001200360061d0bf000004e00014
:102d44000f003a00908480000000e800908488001e
:102d54009184800000e22400808f5000210036001e
:102d640053d0bf000004e0001b003a0070c0b30061
:102d740053f0b70010c0b30061f0b700190037007a
:102d840071868000802e2200808f500010003e004b
:102d940061d0bf00e14f50000d003a0090848000e4
:102da4000000e800908488009184800000e2240000
:102db400808f50000b0036006170ef0053d0bf00cd
:102dc400e74f500006003a005370ef00050037004b
:102dd4009230ef00030037000000000001003700cc
:102de4000000000058d0bf00e14f500012003a002c
:102df40062d0bf000004e0000f003a00a08480000d
:102e04000000e800a0848800a184800000e224007f
:102e1400808f50002000360053d0bf000004e00033
:102e24001a003a0080c0b30053f0b70010c0b300da
:102e340062f0b7001800370058d0bf000004e0006b
:102e440010003a0062d0bf00e14f50000d003a007c
:102e5400a08480000000e800a0848800a184800091
:102e640000e22400808f50000b0036006270ef00f7
:102e740053d0bf00e84f500006003a005370ef00f3
:102e8400050037009430ef00030037000000000015
:102e9400010037000000000055d0bf00e14f500092
:102ea40012003a0063d0bf000004e0000f003a00b3
:102eb400c08480000000e800c0848800c1848000d1
:102ec400007d2000808f50002000360053d0bf00ca
:102ed4000004e0001a003a0090c0b30053f0b700b9
:102ee40010c0b30063f0b7001800370055d0bf001e
:102ef4000004e00010003a0063d0bf00e14f50002e
:102f04000d003a00c08480000000e800c0848800fe
:102f1400c1848000007d2000808f50000b003600ab
:102f24006370ef0053d0bf00e94f500006003a0031
:102f34005370ef00050037009830ef0003003700ae
:102f44000000000001003700000000000080fa00cb
:102f5400000006000000fa00918580004006200071
:102f6400808f5000020036004006200090858800c3
:102f7400708280000000e00001003d004e30ef0050
:102f84008085800080004000a08b280000804000e5
:102f940010007800a0858800708280006101b9006b
:102fa400a08580008000eb00809ab900828bb90074
:102fb40086027800050242000010b80001024200b7
:102fc40084007800b0858800c1858800b0858000c1
:102fd400c1858000f2ff270003002000fdf60700f2
:102fe40000007800d0858800d185800080bb200057
:102ff400808f50000200360080bb2000d0858800fe
:10300400d0858000506088000080fa00000006002f
:103014000000fa0030c0b30016040700c0c9b300b2
:103024001404070080c1b300120407003086800036
:10303400004078000f040700308680004800de005e
:10304400004078000b0407004086800000407800b0
:1030540008040700408680004800de000040780035
:103064000404070050868000004078000104070033
:10307400508680004800de0000407800fd03070011
:103084006086800000407800fa03070060868000b4
:103094004800de0000407800f603070070868000d8
:1030a40000407800f3030700708680004800de00cb
:1030b40000407800ef03070000888000004078009b
:1030c400ec030700008880004880de0000407800a0
:1030d400e80307002088800000407800e50307002b
:1030e400208880004880de0000407800e10307006b
:1030f4000089800000407800de030700008980001a
:103104004800de0000407800da030700f088800001
:1031140000407800d7030700f08880004800de00f4
:1031240000407800d30307007088800000407800d6
:10313400d0030700708880004800de00004078005b
:10314400cc03070052d0bf00ca03070053d0bf000e
:10315400c803070073d0bf00c603070072d0bf00c6
:10316400c4030700a083800000407800c103070067
:1031740058d0bf00bf03070058d0bf00bd030700ed
:1031840058d0bf00bb03070058d0bf00b9030700e5
:10319400c0cfb300b70307000080fa0000000600a8
:1031a4000000fa00c01a210020828800a0ff21003c
:1031b400308288004004210039f607002082800014
:1031c4007114220001087800208280000080e80049
:1031d40061662e00010878002082800064004000af
:1031e4008000eb0001087800108680004500dd00b7
:1031f400608288004a30ef000080fa000000060078
:103204000000fa00c01a210020828800a0ff2100db
:103214003082880040042100fff5070040828000ce
:1032240070828800c089210060828800c089800083
:1032340050828800208280007114220001087800e6
:10324400208280000080e80061662e00010878007a
:1032540020828000640040008000eb0001087800b8
:103264003082800064004000e1ff800001087800a3
:10327400308280000080e800d1ff800001087800df
:1032840031828000c2898000c08921000200500080
:10329400800878000080fa00000006000000fa00b0
:1032a4000500370040012000d2fa07006082800048
:1032b4000000e8006082880061828000c0892100eb
:1032c400808f5000f7ff3400c0892100608288009d
:1032d4000080fa00000006000000fa004000200010
:1032e40001002000408188005181880042818000d3
:1032f400538180004c18dd00c410de008100700092
:103304004c10dd0042ce20000300200031f60700ff
:103314004081880051818800500020000100200075
:1033240060818800718188006081800071818000e3
:10333400823e20008289b900e002b900840178004d
:1033440003014100833e20000300b8000101410055
:103354008200780082382100030020000000510020
:1033640081805900608088007180880060808000be
:1033740071808000e00f5000e08f58002b00320075
:103384006281800073818000e00020000100200041
:10339400800f5100818f590024003e00608180001d
:1033a4007181800061004000e0804800823e20007e
:1033b4008289b900e002b900840178000301410068
:1033c400833e20000300b800010141008200780020
:1033d40082c72e00f3ff2f000000410081804900c6
:1033e40080818800918188006081800071818000e3
:1033f400823e20008289b900e002b900840178008d
:1034040003014100833e20000300b8000101410094
:10341400820078008238210003002000000051005f
:1034240081805900a0818800b1818800608180007a
:103434007181800063005000e08058006081880042
:10344400718188000080fa00000006001000fa0074
:103454006400470042818000538180000288be00de
:10346400e0818000f18180000001be00640047001b
:1034740090009000100078000000510081805900f5
:10348400680147000089be00008080001180800030
:1034940060001000e0801800680147001201780005
:1034a4008191b900ea01470093017800809ab9003c
:1034b4008401780003014100e8014700930178008a
:1034c4000018b8000101410082007800820c20003d
:1034d400030020007ef507006c0147000089be0050
:1034e400208080003180800060001000e08018009f
:1034f40068014700120178008191b900ea01470090
:1035040093017800809ab900840178000301410096
:10351400e8014700930178000018b8000101410058
:1035240082007800820c20000300200068f5070068
:103534000001be00408080005180800002004000f5
:103544008380480040808800518088004280800049
:10355400538080008002200001002000800f510071
:10356400818f5900040034008002200001002000f3
:103574004080880051808800428080005380800011
:1035840080fd2f00f1ff2f00800f5100818f590023
:1035940004003d0080fd2f00f1ff2f0040808800d3
:1035a4005180880040808000518080006c01470079
:1035b4009201900012017800001f41000197490018
:1035c40000402200010020001e0f40005e974800ca
:1035d400b00c2000010020001e0178009e01900024
:1035e400800f5100818f59000a003400c00c200064
:1035f40001002000008fbe00a0808000b180800008
:1036040061004000e0804800a0808800b18088000c
:103614000b003700a0808000b1808000e00f5000d4
:10362400e08f580006003200a0808000b180800046
:1036340061005000e0805800a0808800b1808800bc
:10364400f0082000010020001e0178009e01900077
:10365400800f5100818f59000a003c00f0082000bf
:1036640001002000008fbe008080800091808000d7
:1036740061004000e08048008080880091808800dc
:103684000b0037008080800091808000e00f5000a4
:10369400e08f580006003200808080009180800016
:1036a40061005000e080580080808800918088008c
:1036b4001e0078009e0090000080fa0000000600c2
:1036c4000000fa000830ef000a30ef001430ef0079
:1036d4001630ef001030ef001230ef00200320000e
:1036e4000100200020808800318088002003200011
:1036f4000100200000808800118088000080fa000a
:10370400000006000000fa00f9030700ecff0700c0
:1037140040be2000c9020700d0020700a0b8200064
:10372400160307001d03070000f120003202070002
:10373400a0f1200012040700e7fe070098fe07002e
:1037440024eea800250ea800252ea800803e200007
:10375400a8f90700a9fc070040a7a800ffff37004d
:103764000000fa0007e2a9000080fa000000060049
:103774000000fa002228a8002208a8000080fa000d
:10378400000006000000fa001041800062006000a2
:103794000000e00004003a00104180006100600075
:1037a4000000e00002003200100020000100370099
:1037b4000000eb00004078000080fa0000000600e2
:1037c4000000fa002228a9002208a9000080fa00bb
:1037d400000006000000fa000228a9000208a9005f
:1037e4000080fa00000006000000fa000228a80089
:1037f4000208a8000080fa00000006000200fa0097
:10380400000f780010408000620060000000e000bb
:1038140010003a0010408000610060000000e000e9
:103824000c003a0010408000620060000000e000dc
:1038340008003a0010408000610060000000e000d1
:1038440004003a004076210001002000d203070062
:10385400f4ff37000080fa00000006000000fa00c0
:103864003110800000002800008060000000e000ab
:1038740007003a000822ef000004280030108800f6
:10388400f00820002010880010c0b30001003700a9
:103894000040eb000080fa00000006000000fa007f
:1038a4003110800000002800008060000000e0006b
:1038b40004003a0006c2a80007e2a80010c0b30042
:1038c400010037000040eb000080fa000000060011
:1038d4000000fa000080fa00000006000000fa0070
:1038e4000602a8000080fa00000006000000fa00aa
:1038f4000622a8000080fa00000006000000fa007a
:103904000642a8000080fa00000006000000fa0049
:10391400401080004f00de00004078000080fb0073
:1039240000f0a7000000ea000000ea004f00de00fb
:10393400004078000080fa00000006000000fa0051
:103944000662a8000080fa00000006000000fa00e9
:1039540000108000004078000080fa00000006009b
:103964000200fa00004f78001e80fb00101088004f
:103974000080fa00000006000000fa0006a2a90078
:103984000682a8000080fa00000006000000fa0089
:1039940006a2a8000682a8000080fa000000060023
:1039a4000000fa000782a8000080fa000000060068
:1039b4000000fa0040108000620060000000e00097
:1039c40004003a0040108000610060000000e00044
:1039d4000200320010002000010037000000eb005c
:1039e400004078000080fa00000006000000fa00a1
:1039f400401080004300de00614060000080fb0056
:103a040000f0a7000000ea000000ea004f00de001a
:103a1400004078000080fa00000006000000fa0070
:103a240041108000000220000080600000f0a70028
:103a34000000ea000000e9004f00de0000407800ca
:103a44000080fa00000006000000fa004010800028
:103a54004400de00614060000080fb0000f0a7002d
:103a64000000ea000000ea004f00de000040780099
:103a74000080fa00000006000000fa0040108000f8
:103a84004500de00614060000080fb0000f0a700fc
:103a94000000ea000000ea004f00de000040780069
:103aa4000080fa00000006000000fa0040108000c8
:103ab4004200de00614060000080fb0000f0a700cf
:103ac4000000ea000000ea004f00de000040780039
:103ad4000080fa00000006000000fa000942a90074
:103ae4000080fa00000006000000fa000080fa00de
:103af400000006000000fa000080fa000000060042
:103b04000000fa000080fa00000006000000fa003d
:103b14000080fa00000006000200fa00000f78009e
:103b24009e007800318d88000080fa0000000600b5
:103b34000200fa00000f78009e007800418d880092
:103b44000080fa00000006000200fa00000f78006e
:103b54009e007800518d88000080fa000000060065
:103b64000000fa00003a80000080fa00000006001d
:103b74000200fa00faff0700000f78001e00780028
:103b8400240007000004e0000200320000002800c6
:103b94007d0007001e0078002c0007000004e000f0
:103ba4000200320000002400770007001e007800a5
:103bb400360007000004e00002003200002020006c
:103bc400710007001e007800400007000004e000b8
:103bd40002003200000820006b0007001e0078007d
:103be4004a0007000004e000020032000004200044
:103bf400650007001e007800540007000004e00080
:103c040002003200000120005f0007000080fa007b
:103c1400000006000400fa008e80e80080087800a6
:103c24000040eb00004f78000e80e80010007800a0
:103c34000000e00002003d0010c0b300004f780017
:103c44001e4078000080fa00000006000400fa001c
:103c54008e80e800800878000040eb00004f780078
:103c64000e80e800900078000000240000806000ce
:103c74000000e0000200320010c0b300004f7800e2
:103c84001e4078000080fa00000006000400fa00dc
:103c94008e80e800800878000040eb00004f780038
:103ca4000e80e80090007800002020000080600072
:103cb4000000e0000200320010c0b300004f7800a2
:103cc4001e4078000080fa00000006000400fa009c
:103cd4008e80e800800878000040eb00004f7800f8
:103ce4000e80e8009000780000082000008060004a
:103cf4000000e0000200320010c0b300004f780062
:103d04001e4078000080fa00000006000400fa005b
:103d14008e80e800800878000040eb00004f7800b7
:103d24000e80e8009000780000042000008060000d
:103d34000000e0000200320010c0b300004f780021
:103d44001e4078000080fa00000006000400fa001b
:103d54008e80e800800878000040eb00004f780077
:103d64000e80e80010007800700060000000e000a1
:103d74000200320010c0b300004f78001e407800eb
:103d84000080fa00000006000200fa00000f78002c
:103d94001e80ea00013a800001006000003a8800b9
:103da4000080fa00000006000000fa004027ef003f
:103db4000080fa00000006000000fa00022cef0068
:103dc40080bb20002060880000ee22003060880064
:103dd4000a2cef001a2cef001e2cef0040302000bc
:103de40000618800403020000062880040302100db
:103df4000063880000002c00e3c12000113224007d
:103e0400d2bc2a00820978008109780010618800f8
:103e140000042c00e3c1200011322400d2bc2a008b
:103e240082097800810978001062880000042c005f
:103e3400e3c1200011322400d2bc2a008209780098
:103e4400810978001063880030002000e3c120005d
:103e540011322400d2bc2a0082097800810978003a
:103e64002061880030002000e3c1200011322400ca
:103e7400d2bc2a0082097800810978002062880077
:103e840030002000e3c1200011322400d2bc2a00fb
:103e94008209780081097800206388006009200085
:103ea40030618800462cef00662cef0080bb2000b8
:103eb4004061880080bb20004062880080bb2000f5
:103ec40040638800800c200050618800800c200032
:103ed40050628800800c200050638800800c200011
:103ee40060618800800c200060628800800c2000e3
:103ef40060638800322cef00522cef00722cef002c
:103f0400342cef00542cef00742cef003a2cef000b
:103f14005a2cef007a2cef003c2cef005c2cef00c5
:103f24007c2cef003e2cef005e2cef007e2cef008b
:103f340080ff2100300007000c08a9002c08a8000d
:103f440000102800006088000080fa0000000600cd
:103f54000000fa000080fa00000006000000fa00e9
:103f64003140800000202000008060000000e0005c
:103f740002003200f6ff07000728a9000080fa00bb
:103f8400000006000000fa000080fa0000000600ad
:103f94000000fa0031408000002020000080600012
:103fa4000000e00002003200f6ff07000bc8a90081
:103fb4000080fa00000006000000fa000080fa0009
:103fc400000006000000fa003140800000202000bc
:103fd400008060000000e00002003200f6ff0700ed
:103fe4000be8a9000080fa00000006000000fa00b7
:103ff4000080fa00000006000200fa00000f7800ba
:104004001e007800e08d88000080fa0000000600a1
:104014000000fa0080002000001188002222ef0036
:10402400606120004011880021e2a8002342a8001a
:104034000080fa00000006000000fa000000000002
:1040440010118000610060000000e000fcff3200fd
:1040540010118000620060000000e00001003200e6
:104064002222a90030118000004078000080fa006c
:10407400000006000200fa00004f78000000000073
:104084001111800000202000008060000000e0008a
:10409400fbff3a001e80fb00201188000080fa001c
:1040a400000006000000fa001011800000407800b3
:1040b400614060000080fb0000f0a7000000ea00ff
:1040c4000000ea004f00de00004078000080fa00a3
:1040d400000006000000fa0011118000001020000a
:1040e400008060000000e000070032001111800031
:1040f40000402000008060000000e0000200320068
:1041040010002000010037000000eb0000407800a0
:104114000080fa00000006000000fa001011800080
:104124004800de00614060000080fb0000f0a70052
:104134000000ea000000ea004f00de0000407800c2
:104144000080fa00000006000000fa001011800050
:104154000080fa00000006000000fa00d1ff07000a
:104164000080fa00000006000000fa00d9ff0700f2
:104174000080fa00000006000000fa00c9ff0700f2
:104184000080fa00000006000000fa00e2ff0700c9
:104194000080fa00000006000000fa000621ef008b
:1041a400c02e2000600888000001280080088800d4
:1041b400908d80000000e00002003a00a01122006f
:1041c4001e00070000e8a90020e8a800b471ef0071
:1041d4000080fa00000006000200fa00000f7800d8
:1041e4009e00780061088800b471ef000080fa0036
:1041f400000006000000fa00600880000080fa0059
:10420400000006000200fa00000f78009e0078000b
:1042140031088800b471ef000080fa000000060045
:104224000000fa00300880000080fa000000060058
:104234000000fa000080fa00000006000200fa0004
:10424400000f780020e8a9009e007800918d880076
:1042540020e8a8000080fa00000006000000fa0030
:10426400b471ef0020e8a80011e1a8000080fa0072
:10427400000006000000fa0011e1a90020e8a900ee
:104284000080fa00000006000200fa00411b210031
:1042940091407800014f78001e4078000004e0004f
:1042a40001003200b471ef001e4078000080fa0073
:1042b400000006000000fa00b5d1bf000080fb003a
:1042c4000080fa00000006000000fa00b571ef005b
:1042d4000080fa00000006000000fa000a21ef0046
:1042e40010bb200070088800000028009008880097
:1042f400b08d80000000e00002003a00a01b220004
:104304001e0007000108a9002108a800b871ef00e9
:104314000080fa00000006000200fa00000f780096
:104324009e00780071088800b871ef000080fa00e0
:10433400000006000000fa00700880000080fa0007
:10434400000006000200fa00000f78009e007800ca
:1043540051088800b871ef000080fa0000000600e0
:104364000000fa00500880000080fa0000000600f7
:104374000000fa000080fa00000006000200fa00c3
:10438400000f78002108a9009e007800b18d8800f4
:104394002108a8000080fa00000006000000fa00ce
:1043a400b871ef002108a80013e1a8000080fa000a
:1043b400000006000000fa0013e1a9002108a9008a
:1043c4000080fa00000006000200fa00811b2100b0
:1043d40091407800014f78001e4078000004e0000e
:1043e40001003200b871ef001e4078000080fa002e
:1043f400000006000000fa00b9d1bf000080fb00f5
:104404000080fa00000006000000fa00b971ef0015
:104414000080fa00000006000000fa00042eef00fd
:10442400142eef00242eef00705920000070880035
:10443400f02f200080708800300720000071880071
:104444000c2eef001c2eef002c2eef000a2eef0096
:104454001a2eef002a2eef00062eef00162eef0084
:10446400262eef003000200070708800f00020003d
:10447400f07088003000200070718800113a8000cc
:10448400f00b200000816000600420007105200012
:10449400237420008049780081497800824978009b
:1044a400c135800000f82f00008060008001b30057
:1044b400c03588003134800000fc2f00008060008b
:1044c4000000a000303488002136800000f82f005e
:1044d4008080600070022000010070002036880097
:1044e400103a8000000178000260a00060042000ff
:1044f40071052000237420008049780081497800e8
:10450400824978000080fa00000006000000fa00ea
:1045140000002300203a88004827ef004e27ef00d0
:10452400f0032000303a88006027ef006227ef0094
:104534006427ef006627ef006a27ef006c27ef007f
:104544001200200080072000a109200033742000fd
:10455400804978008149780082497800120020005f
:104564006004200071052000237420008049780035
:10457400814978008249780000000000103a8000e8
:10458400610060000000e000fcff3a000000000051
:10459400113a800000022000008060000000e0006a
:1045a400fbff32000080fa00000006000000fa0061
:1045b4008143800080ff2f00008060000000a00085
:1045c4008043880031428000f0f82f008080600032
:1045d4000005200001007000304288004142800044
:1045e400f0f82f00008060000040a00040428800e6
:1045f4004142800080ff2f00008060000000a00086
:10460400404288002142800080ff2f00008060002b
:104614006000b3002042880011428000f0ff2800af
:104624000080600000e0a000104288000080fa00d2
:04463400000006007c
:020000040000fa
:10463800ba1100000200000082000000ffff000025
:10464800861100002000000080000000bc1100005e
:104658000200000080000000be11000002000000ff
:1046680080000000b211000004000000800000007b
:10467800b61100000400000080000000a611000030
:104688000600000080000000001000008601000005
:1046980080000000ac11000006000000800000004f
:1046a800fa1f000006000000800000000000000063
:020000040000fa
:1046b8000200fa00000f780021028000200f20007d
:1046c800008060001e007000200288000080fa0050
:1046d800000006000000fa00c3e8a800000000007f
:1046e800000000000080fa00000006000000fa0048
:1046f80048ff0700acff070083ff070043fe0700e1
:1047080008000700f3fe0700aafd0700a1fe070046
:10471800f0ff070000022000e5ff07000080fa0014
:10472800000006000000fa00600428000019880054
:1047380080412000101988004010200020198800ae
:104748002823ef0000002c0070198800f01c2000be
:10475800801988003223ef002623ef00c03b220097
:104768000600070021a8a8000080fa000000060043
:104778000000fa000080fa00000006000200fa00bb
:10478800000f78001e007800f08d88000080fa0085
:044798000000060017
:020000040000fa
:10479c00f03fb1000180b10006003500ee030900c6
:1047ac0000000000403fb1000180b100fbff3d0064
:1047bc001000b000203fb00002003500008009005e
:0847cc000000000000000600df
:020000040000fa
:1047d4000200fa00000f78009e007800d18d880056
:1047e400ffff37000000fa006018210080077800fe
:1047f400e0192100000188000080fa000000060092
:020000040000fa
:04afe000ceff0000a0
:020000040000fa
:04afe400ffff00006b
:020000040000fa
:04afe80065ff000001
:020000040000fa
:04afec007bff0000e7
:020000040000fa
:04aff00038ff000026
:020000040000fa
:04aff400ffffff005c
:00000001FF
