:020000040000fa
:080000000002040000000000f2
:020000040000fa
:040008001a030000d7
:020000040000fa
:04000c005c03000091
:020000040000fa
:04001000bc0300002d
:020000040000fa
:040014003a030000ab
:020000040000fa
:040018007c03000065
:020000040000fa
:04001c009c03000041
:020000040000fa
:04002000dc030000fd
:020000040000fa
:040024000a050000c9
:020000040000fa
:040028000a050000c5
:020000040000fa
:04002c000a050000c1
:020000040000fa
:040030000a050000bd
:020000040000fa
:040034000a050000b9
:020000040000fa
:040038000a050000b5
:020000040000fa
:04003c000a050000b1
:020000040000fa
:040040000a050000ad
:020000040000fa
:040044006e04000046
:020000040000fa
:040048009e04000012
:020000040000fa
:04004c000a050000a1
:020000040000fa
:040050000a0500009d
:020000040000fa
:040054000a05000099
:020000040000fa
:040058000a05000095
:020000040000fa
:04005c002e0400006e
:020000040000fa
:040060000a0500008d
:020000040000fa
:040064000a05000089
:020000040000fa
:04006800ec040000a4
:020000040000fa
:04006c00ce040000be
:020000040000fa
:040070000a0500007d
:020000040000fa
:040074000a05000079
:020000040000fa
:040078000a05000075
:020000040000fa
:04007c000a05000071
:020000040000fa
:040080000a0500006d
:020000040000fa
:040084000a05000069
:020000040000fa
:040088000a05000065
:020000040000fa
:04008c000a05000061
:020000040000fa
:040090000a0500005d
:020000040000fa
:040094000a05000059
:020000040000fa
:040098000a05000055
:020000040000fa
:04009c000a05000051
:020000040000fa
:0400a0000a0500004d
:020000040000fa
:0400a4000a05000049
:020000040000fa
:0400a8000a05000045
:020000040000fa
:0400ac000a05000041
:020000040000fa
:0400b0000a0500003d
:020000040000fa
:0400b4000a05000039
:020000040000fa
:0400b8000a05000035
:020000040000fa
:0400bc000a05000031
:020000040000fa
:0400c0000a0500002d
:020000040000fa
:0400c4000a05000029
:020000040000fa
:0400c8000a05000025
:020000040000fa
:0400cc000a05000021
:020000040000fa
:0400d0000a0500001d
:020000040000fa
:0400d4000a05000019
:020000040000fa
:0400d8000a05000015
:020000040000fa
:0400dc000a05000011
:020000040000fa
:0400e0000a0500000d
:020000040000fa
:0400e4000a05000009
:020000040000fa
:0400e8000a05000005
:020000040000fa
:0400ec000a05000001
:020000040000fa
:0400f0000a050000fd
:020000040000fa
:0400f4000a050000f9
:020000040000fa
:0400f8000a050000f5
:020000040000fa
:0400fc000a050000f1
:020000040000fa
:040100000a050000ec
:020000040000fa
:040104000a050000e8
:020000040000fa
:040108000a050000e4
:020000040000fa
:04010c000a050000e0
:020000040000fa
:040110000a050000dc
:020000040000fa
:040114000a050000d8
:020000040000fa
:040118000a050000d4
:020000040000fa
:04011c000a050000d0
:020000040000fa
:040120000a050000cc
:020000040000fa
:040124000a050000c8
:020000040000fa
:040128000a050000c4
:020000040000fa
:04012c000a050000c0
:020000040000fa
:040130000a050000bc
:020000040000fa
:040134000a050000b8
:020000040000fa
:040138000a050000b4
:020000040000fa
:04013c000a050000b0
:020000040000fa
:040140000a050000ac
:020000040000fa
:040144000a050000a8
:020000040000fa
:040148000a050000a4
:020000040000fa
:04014c000a050000a0
:020000040000fa
:040150000a0500009c
:020000040000fa
:040154000a05000098
:020000040000fa
:040158000a05000094
:020000040000fa
:04015c000a05000090
:020000040000fa
:040160000a0500008c
:020000040000fa
:040164000a05000088
:020000040000fa
:040168000a05000084
:020000040000fa
:04016c000a05000080
:020000040000fa
:040170000a0500007c
:020000040000fa
:040174000a05000078
:020000040000fa
:040178000a05000074
:020000040000fa
:04017c000a05000070
:020000040000fa
:040180000a0500006c
:020000040000fa
:040184000a05000068
:020000040000fa
:040188000a05000064
:020000040000fa
:04018c000a05000060
:020000040000fa
:040190000a0500005c
:020000040000fa
:040194000a05000058
:020000040000fa
:040198000a05000054
:020000040000fa
:04019c000a05000050
:020000040000fa
:0401a0000a0500004c
:020000040000fa
:0401a4000a05000048
:020000040000fa
:0401a8000804000047
:020000040000fa
:0401ac000a05000040
:020000040000fa
:0401b0000a0500003c
:020000040000fa
:0401b4000a05000038
:020000040000fa
:0401b8000a05000034
:020000040000fa
:0401bc000a05000030
:020000040000fa
:0401c0000a0500002c
:020000040000fa
:0401c4000a05000028
:020000040000fa
:0401c8000a05000024
:020000040000fa
:0401cc000a05000020
:020000040000fa
:0401d0000a0500001c
:020000040000fa
:0401d4000a05000018
:020000040000fa
:0401d8000a05000014
:020000040000fa
:0401dc000a05000010
:020000040000fa
:0401e0000a0500000c
:020000040000fa
:0401e4000a05000008
:020000040000fa
:0401e8000a05000004
:020000040000fa
:0401ec000a05000000
:020000040000fa
:0401f0000a050000fc
:020000040000fa
:0401f4000a050000f8
:020000040000fa
:0401f8000a050000f4
:020000040000fa
:0401fc000a050000f0
:020000040000fa
:040200000a050000eb
:020000040000fa
:040204000a050000e7
:020000040000fa
:040208000a050000e3
:020000040000fa
:04020c000a050000df
:020000040000fa
:040210000a050000db
:020000040000fa
:040214000a050000d7
:020000040000fa
:040218000a050000d3
:020000040000fa
:04021c000a050000cf
:020000040000fa
:040220000a050000cb
:020000040000fa
:040224000a050000c7
:020000040000fa
:040228000a050000c3
:020000040000fa
:04022c000a050000bf
:020000040000fa
:040230000a050000bb
:020000040000fa
:040234000a050000b7
:020000040000fa
:040238000a050000b3
:020000040000fa
:04023c000a050000af
:020000040000fa
:040240000a050000ab
:020000040000fa
:040244000a050000a7
:020000040000fa
:040248000a050000a3
:020000040000fa
:04024c000a0500009f
:020000040000fa
:040250000a0500009b
:020000040000fa
:040254000a05000097
:020000040000fa
:040258000a05000093
:020000040000fa
:04025c000a0500008f
:020000040000fa
:040260000a0500008b
:020000040000fa
:040264000a05000087
:020000040000fa
:040268000a05000083
:020000040000fa
:04026c000a0500007f
:020000040000fa
:040270000a0500007b
:020000040000fa
:040274000a05000077
:020000040000fa
:040278000a05000073
:020000040000fa
:04027c000a0500006f
:020000040000fa
:040280000a0500006b
:020000040000fa
:100400006f152100aefe21000e01880000000000e3
:10041000000020000000e000020032000001200087
:100420002002880014000700a90107000000e00076
:1004300003003a00e005220001002000020037001e
:100440000000200001002000810f70000100320038
:100450000f000700000020000000e0000200320052
:100460000000020000000000ca18020000000000a6
:100470000040da000000fe00001920000000e0004b
:1004800002003200002020009001880000000600d9
:10049000a1028800800478000000eb001f003700f4
:1004a000e284440054a0b4009905ba00e2844400f8
:1004b00054a0b4009906ba00e284440054a0b400e9
:1004c0000006eb00476fde00fd07b200ae018800ba
:1004d000636ce10003003a000ad801000000eb0061
:1004e0000e003700606ce10008003a00004deb00a0
:1004f0000a05e800020039003420ec000af0a000f0
:100500008b05e900f9ff3e00040037006168e10057
:10051000010032000086eb000b00070019c7ba008b
:100520000e04e0001905ba0003003a000a00e000da
:10053000dbff3a0000000600fe07b200ae028800b2
:100540008a047800f5ff37000cd0a300e20f4d00bd
:100550001c003b0089027800354dba000a05e8000e
:10056000020039003420ec000af0a0008b05e900fd
:100570000f003200254dba000a05e80002003900dc
:100580003420ec000af0a0008b05e90008003200de
:100590000c00e0000600320015cdba000a05e800a4
:1005a000020039003420ec000af0a0008b05e900bd
:1005b0008984e80054a0b4000b00e000e2ff3a0098
:1005c000000006009902ba00055d78008b05e9007d
:1005d000f7ff3200c82ade00055d78008b05e900d0
:1005e000f3ff32000c00e000f1ff320019ddba0029
:1005f000eeff3700000000000000000000000000d7
:1006000000000000000000000000000000000000ea
:1006100000000000000000000000000000000000da
:1006200000000000000000000000000000000000ca
:10063000000000003600f800809fbe00829fbe00d0
:10064000849fbe00869fbe000000fa00c028a9005b
:100650000000eb00000f07000080fa004f03be000f
:100660004f02be004f01be004f00be003600f90031
:10067000004006003600f800809fbe00829fbe004a
:10068000849fbe00869fbe000000fa00f70e0700a0
:10069000c048a90010002000ef0e07000080fa00fb
:1006a0004f03be004f02be004f01be004f00be0010
:1006b0003600f900004006003600f800809fbe00ba
:1006c000829fbe00849fbe00869fbe000000fa008d
:1006d000c068a90020002000df0e07000080fa009b
:1006e0004f03be004f02be004f01be004f00be00d0
:1006f0003600f900004006003600f800809fbe007a
:10070000829fbe00849fbe00869fbe000000fa004c
:10071000c088a90030002000cf0e07000080fa003a
:100720004f03be004f02be004f01be004f00be008f
:100730003600f900004006003600f800809fbe0039
:10074000829fbe00849fbe00869fbe000000fa000c
:10075000c0a8a90040002000bf0e07000080fa00da
:100760004f03be004f02be004f01be004f00be004f
:100770003600f900004006003600f800809fbe00f9
:10078000829fbe00849fbe00869fbe000000fa00cc
:10079000c608a90070002000af0e07000080fa0014
:1007a0004f03be004f02be004f01be004f00be000f
:1007b0003600f900004006003600f800809fbe00b9
:1007c000829fbe00849fbe00869fbe000000fa008c
:1007d0002146800000022000008060000000e00050
:1007e00003003200c4a8a900900020009a0e070060
:1007f00020468000700060000000e000030032002e
:10080000c488a900a0002000930e0700ffff370056
:100810003600f800809fbe00829fbe00849fbe000d
:10082000869fbe000000fa00908a80000000e00071
:1008300002003200908a8000000001000c08a9002c
:100840000080fa004f03be004f02be004f01be0001
:100850004f00be003600f900004006003600f800e8
:10086000809fbe00829fbe00849fbe00869fbe0008
:100870003200f8003400f80010002000a0018800c9
:100880000020200000d0fe000000fa00014080009f
:1008900000002200008060000000e000060032003e
:1008a000a08a80000000e00002003200a08a8000e0
:1008b0000000010001a8a9000080fa003400f9003e
:1008c0003200f9004f03be004f02be004f01be00d0
:1008d0004f00be003600f900004006003600f80068
:1008e000809fbe00829fbe00849fbe00869fbe0088
:1008f0000000fa00408a80000000e00002003200a0
:10090000408a8000000001004bd1bf000040e80099
:100910004bf1b70010c0b3004af1b70000e8a900de
:100920000080fa004f03be004f02be004f01be0020
:100930004f00be003600f900004006003600f80007
:10094000809fbe00829fbe00849fbe00869fbe0027
:100950000000fa00608a80000000e000020032001f
:10096000608a8000000001004fd1bf000040e80015
:100970004ff1b70010c0b3004ef1b7000108a90055
:100980000080fa004f03be004f02be004f01be00c0
:100990004f00be003600f900004006003600f800a7
:1009a000809fbe00829fbe00849fbe00869fbe00c7
:1009b0000000fa00f0898000000001000080fa00c9
:1009c0004f03be004f02be004f01be004f00be00ed
:1009d0003600f900004006003600f800809fbe0097
:1009e000829fbe00849fbe00869fbe000000fa006a
:1009f000008a8000000001000080fa004f03be0062
:100a00004f02be004f01be004f00be003600f9008d
:100a1000004006000040da000000fe0000a0fe00da
:100a2000841f7800851f7800881f78008a1f78004f
:100a30004400f800080f20002802880000049000fd
:100a400010059000a000900030019000c0019000bf
:100a50000300ca000280ca000030cb001a00cd009b
:100a60004604c3000100ca004604c0001e04c000c2
:100a70000605c0000100cd0021009800050d78009a
:100a8000eaba9700052578004400f9004f05780080
:100a90004f047800cf0278004f0278000080fe00fb
:100aa00000000600801f78004000b0000008eb0046
:100ab0004f007800801f7800100090000018eb00b5
:100ac0000018eb000008eb004f0078000000060063
:100ad000000005000001be001b0007000470a70015
:100ae00003f0a10003f8a30013003a006509b10068
:100af00010003200090035006928e10002003500cd
:100b0000010028000000050000004000818048002e
:100b10008502e900fcff3a0000000600f88f420061
:100b2000050035008100d1000080d3008502e80077
:100b3000fcff3a00000006008000eb00000005000a
:100b40006011b80027013700c70ade00f107b200c4
:100b5000f50fb20008003200e1cf4200020032007f
:100b60000170a00024000500810f70000100320018
:100b70000408050044000500810f700002003a00df
:100b8000140005008502e9000000400081c0480013
:100b9000fcff3b000170a000240005006022b800ab
:100ba000060220000000d0008180d2000482d20022
:100bb0008582d2000000a0000202520083825a0007
:100bc000030031000202420083824a000000a100bb
:100bd0000603e900f3ff3a00000006000383680003
:100be0000700280007036300470ade000480a10015
:100bf000c71ade000580a100f70f20000720e100e2
:100c0000420032000728e10040003200889fbe0009
:100c10008a9fbe008c1f7800f107b200f307b20074
:100c20000400e000640032000170a0000500e00054
:100c3000680032000370a00085054200eb07b10098
:100c40000204b8000302b8008484440060854a00ae
:100c5000020ab800848444000a854a00030ab800e6
:100c600004054500040033000804d0008984d20044
:100c70000a85d2008b05e9006158e1003d0035008e
:100c80000210200009016100030820008981610031
:100c9000f70720008783640008867300c84cde00d5
:100ca000c853dd00878474004855de000300e0006f
:100cb0000600320082037600040032008904e80056
:100cc00060054d000a88a3000c003a00f70f2000d1
:100cd0000758e10044003d000a70a100c75ddd0037
:100ce0000a8575008a007300090078004f067800b5
:100cf0004f05be004f04be00000006000a05d100eb
:100d00008984d3008b05e800f0ff3700881f780046
:100d10000604780090000700070278000001fd003b
:100d20008101fd008c0007008702780085037200b6
:100d30000778a300050032000001fd008101fd00dd
:100d40009f0007004f047800000006008503720032
:100d50000748a30003003200f0ff2f00f1ff270037
:100d6000f8ff37000000200001f82700888070009d
:100d7000f4ff3700880178004848dd008081710069
:100d80004848de00c850dd0001007000c850de0099
:100d9000060478000b0178001600070088807000b8
:100da000d2ff37000500e0000500320017002000e8
:100db0003a0007009dff370081037000f9ff3a00f9
:100dc000860078004f0678004f05be004f04be0035
:100dd0000000050083037100f9ff320027002000a6
:100de0002e00070094ff370001f82700868070006e
:100df000f4ff37000100e00026003200610111001d
:100e00007810e10023003c006022b8007010e1007f
:100e10000400350080027800010078008000eb00bb
:100e2000700151000200e00009003400700311005d
:100e3000062add00822ade008603dd00878272003a
:100e40000200de00860bdd00070070008208de0075
:100e500084817100f4ff27000482620084817100a4
:100e600004002800848262006102600005f0a60090
:100e70000000060004827100070032000000e80054
:100e8000e0804800000006000002be006000b800dc
:100e9000efff37006000b80000000600889fbe002a
:100ea0000004eb006138e10016003a000100e000a8
:100eb00008003a00c800de004800dd00880020007d
:100ec0000100e00003003a00c800de004800dd0039
:100ed000680444008184cf00e98454000600340093
:100ee0008908dd00f08314008703de00878070002e
:100ef0000900dd0009044400610214004f04be0033
:100f0000000006000300e00008003a00c811de00ff
:100f10004811dd00880020000300e00003003a00d3
:100f2000c811de004811dd00680444008384cf004e
:100f3000e9845400060034008919dd00f0831400b0
:100f40008713de00878171000911dd000904440068
:100f5000e1021400e9ff37002700200001f0a7009c
:100f600017002000470bde00f60fb200040032002d
:100f70000643e8000a0032004702b3000000060002
:100f800001037800f607b2000603700002003a0081
:100f90000703b300000006008702b300000006004c
:100fa00001037800f607b200060370000200320069
:100fb0000770a000000006000760a0000000060007
:100fc0000478a300040032000578a3000300320077
:100fd0000168a30001003a000200be000160a00009
:100fe00000000600889fbe008a9fbe00008270003d
:100ff0000402710004827100260032000004be0069
:101000000200be006011b8006b09200095022000ac
:101010000182cf000a0039000541b1000082cf00f3
:10102000070039000541b1000982cf0004003900f2
:101030000541b1000882cf00010039000541b1002f
:1010400005425200120032000a003b00828171000a
:10105000610164008100d1000080d3008984d30045
:101060000884d3008b05e8000442e800f7ff3a004b
:10107000070037000804440089844c000000480041
:10108000818048008b05e9000442e900f9ff3a003d
:10109000030007004f05be004f04be00000006001d
:1010a00081002000618055000b003d000b002000f6
:1010b00061fe2f000100e1001d00340082817100fb
:1010c000610164008904d1000884d3000000e800b5
:1010d000faff3a0071002000610064000300700014
:1010e000020060000900320061044400e0844c000a
:1010f0000988a500050032008b05e8006808e100ba
:1011000002003a008904d1000884d300f20f2000c5
:101110000258e10005003d00c75ddd00f907b2009f
:101120008980750008007800000006000bf8270091
:081130008b00780000000500af
:020000040000fa
:101138000000000000000000000000008d0000001a
:10114800bc000000eb0000001a010000490100008b
:1011580077010000a6010000d5010000030200008d
:1011680032020000600200008e020000bc02000093
:10117800ea020000170300004403000072030000a5
:101188009f030000cb030000f803000024040000c4
:10119800500400007c040000a7040000d2040000f2
:1011a800fd04000027050000510500007b05000034
:1011b800a5050000ce050000f70500001f06000089
:1011c800470600006f06000096060000bd060000f6
:1011d800e3060000090700002e070000530700007f
:1011e800780700009c070000bf070000e307000025
:1011f8000508000027080000490800006a080000e8
:101208008a080000aa080000ca080000e9080000cf
:101218000709000025090000420900005f090000d5
:101228007b09000096090000b1090000cb09000005
:10123800e4090000fd090000160a00002d0a00005c
:10124800440a00005b0a0000710a0000860a0000d8
:101258009a0a0000ae0a0000c10a0000d30a000082
:10126800e50a0000f60a0000060b0000160b000055
:10127800250b0000330b0000400b00004d0b000055
:10128800590b0000650b00006f0b0000790b000084
:10129800820b00008b0b0000930b00009a0b0000e0
:1012a800a00b0000a50b0000aa0b0000ae0b00006d
:1012b800b20b0000b40b0000b60b0000b70b000027
:1012c800b80b0000b70b0000b60b0000b40b000011
:1012d800b20b0000ae0b0000aa0b0000a50b00002b
:1012e800a00b00009a0b0000930b00008b0b000072
:1012f800820b0000790b00006f0b0000650b0000eb
:10130800590b00004d0b0000400b0000330b000090
:10131800250b0000160b0000060b0000f60a000063
:10132800e50a0000d30a0000c10a0000ae0a000066
:101338009a0a0000860a0000710a00005b0a000091
:10134800440a00002d0a0000160a0000fd090000ea
:10135800e4090000cb090000b1090000960900006b
:101368007b0900005f090000420900002509000010
:1013780007090000e9080000ca080000aa080000e0
:101388008a0800006a0800004908000027080000d1
:1013980005080000e3070000bf0700009c070000e5
:1013a80078070000530700002e0700000907000017
:1013b800e3060000bd060000960600006f06000068
:1013c800470600001f060000f7050000ce050000d4
:1013d800a50500007b050000510500002705000059
:1013e800fd040000d2040000a70400007c040000f3
:1013f8005004000024040000f8030000cb030000a0
:101408009f0300007203000044030000170300005c
:10141800ea020000bc0200008e0200006002000028
:101428003202000003020000d5010000a6010000fe
:1014380077010000490100001a010000eb000000dc
:10144800bc0000008d00000000000000000000004b
:020000040000fa
:101458000200fa00000f78001e007800e20f50002a
:101468000d003200e30f500014003200e10f50006d
:101478001c003a00106180000090a000e3c1200029
:1014880011322400d2bc2a00820978008109780030
:101498001061880014003700106280000090a000de
:1014a800e3c1200011322400d2bc2a00820978004e
:1014b80081097800106288000b00370010638000f3
:1014c8000090a000e3c1200011322400d2bc2a0001
:1014d8008209780081097800106388000000000004
:1014e80001003700000000000080fa00000006003c
:1014f8000200fa00000f78001e007800e20f50008a
:101508000d003200e30f500014003200e10f5000cc
:101518001c003a00106180000080a000e3c1200098
:1015280011322400d2bc2a0082097800810978008f
:101538001061880014003700106280000080a0004d
:10154800e3c1200011322400d2bc2a0082097800ad
:1015580081097800106288000b0037001063800052
:101568000080a000e3c1200011322400d2bc2a0070
:101578008209780081097800106388000000000063
:1015880001003700000000000080fa00000006009b
:101598000200fa00000f78001e007800e20f5000e9
:1015a8000d003200e30f500014003200e10f50002c
:1015b8001c003a00106180000090a100e3c12000e7
:1015c80011322400d2bc2a008209780081097800ef
:1015d8001061880014003700106280000090a1009c
:1015e800e3c1200011322400d2bc2a00820978000d
:1015f80081097800106288000b00370010638000b2
:101608000090a100e3c1200011322400d2bc2a00be
:1016180082097800810978001063880000000000c2
:1016280001003700000000000080fa0000000600fa
:101638000200fa00000f78001e007800e20f500048
:101648000d003200e30f500014003200e10f50008b
:101658001c003a00106180000080a100e3c1200056
:1016680011322400d2bc2a0082097800810978004e
:101678001061880014003700106280000080a1000b
:10168800e3c1200011322400d2bc2a00820978006c
:1016980081097800106288000b0037001063800011
:1016a8000080a100e3c1200011322400d2bc2a002e
:1016b8008209780081097800106388000000000022
:1016c80001003700000000000080fa00000006005a
:1016d8000000fa000060fe00608380000000e8005f
:1016e8006083880061838000700c2000808f500028
:1016f800080036006c30ef0010c0b30029f0b700c6
:1017080010c0b3002af0b70010c0b3002cf0b70027
:1017180068060700bc05070028d0bf00e14f50004d
:1017280002003a00260407000100370001eca90076
:10173800a08180000000e800a0818800a0818000ce
:10174800f40f5000070036003430ef00908180001d
:101758000000e00003003200908180000000e900f2
:10176800908188000080fa00000006000000fa005e
:101778005c0407000fd0bf000004e0000200320044
:1017880020c0b3000ef0b700107080004a00de00e1
:10179800614060000080fb0000f0a7000000ea0044
:1017a8000000ea004f00de000040780020f0b7009b
:1017b800107080004700de00614060000080fb0080
:1017c80000f0a7000000ea000000ea004f00de0079
:1017d8000040780021f0b700107080004400de005f
:1017e800614060000080fb0000f0a7000000ea00f4
:1017f8000000ea004f00de000040780022f0b70049
:10180800907080004900de00614060000080fb00ad
:1018180000f0a7000000ea000000ea004f00de0028
:101828000040780023f0b700107180004600de0009
:10183800614060000080fb0000f0a7000000ea00a3
:101848000000ea004f00de000040780024f0b700f6
:1018580022d0bf000004e0000300320010c0b30033
:1018680013f0b700030037001370ef0020c0b30077
:101878000ef0b70020d0bf000004e00003003200e3
:1018880010c0b30014f0b700010037001470ef0067
:101898000ed0bf000080fb00e10f50001c0032009a
:1018a800e20f50001f0032000000e0009b003a00e9
:1018b800808180000000e0000c003a004084800035
:1018c800f08588002cd0bf00e14f500007003a0097
:1018d8002c70ef00f1858000b0f524000100500065
:1018e80020868800100020008081880010c0b30086
:1018f80028f0b70001eca80010c0b30015f0b7003d
:101908001306070010c0b3000ef0b70083003700bd
:1019180020c0b30015f0b70010c0b30012f0b70034
:101928007e0037000060fe000a30ef003030ef0024
:101938002870ef000a2cef0001eca90020c0b300ca
:1019480012f0b700244ea90013d0bf00e14f500099
:1019580011003a000fd0bf000004e0000e003a006a
:10196800108280000000e8001082880050c0b30098
:1019780015f0b70011828000f0702200808f5000af
:1019880004003600b3050700052ea9000e70ef000d
:101998004230ef005f00370013d0bf00e14f500026
:1019a80056003a000fd0bf000004e0005300320098
:1019b8004230ef000fd0bf00e14f500004003a0062
:1019c800c08280000000e800c0828800390037002b
:1019d8000fd0bf00e24f500004003a00d0828000d0
:1019e8000000e800d0828800320037000fd0bf0026
:1019f800e34f500004003a00e08280000000e80055
:101a0800e08288002b0037000fd0bf00e44f500061
:101a180004003a00f08280000000e800f0828800ac
:101a2800240037000fd0bf00e54f500004003a00f3
:101a3800008380000000e800008388001d00370054
:101a48000fd0bf00e64f500004003a00108380001a
:101a58000000e80010838800160037000fd0bf0090
:101a6800e74f500004003a00208380000000e8009f
:101a7800208388000f0037000fd0bf00e84f5000c8
:101a880004003a00308380000000e80030838800ba
:101a9800080037000fd0bf00e94f500004003a009b
:101aa800408380000000e800408388000100370080
:101ab8000f70ef002ed0bf00e14f50000e003a002b
:101ac8002dd0bf000004e0000b003a00b082800077
:101ad8000000e800b0828800b182800000e22400a3
:101ae800808f50000400360010c0b3002df0b700fe
:101af8000f70ef005630ef000600370013d0bf001c
:101b08000004e00004003a001570ef001270ef00c6
:101b180002003700010037000000000012d0bf00ab
:101b28000080fb00e10f500008003200e20f500077
:101b3800090032000000e00013003a00244ea9001a
:101b4800052ea900246ea9000f003700244ea80016
:101b5800052ea9000c003700244ea9000fd0bf00a5
:101b6800e24f500004003a00052ea80040c0b30020
:101b780015f0b70004003700052ea90030c0b300e7
:101b880015f0b700000000000fd0bf0010f0b7003c
:101b9800c08180000000e800c0818800c181800009
:101ba800007d2000808f5000600036003830ef0044
:101bb800c404070015d0bf000080fb00e20f5000ee
:101bc80021003200e20f500005003c000000e00058
:101bd8000a003200e10f50000c00320053003700b9
:101be800e40f50003f003200e40f50001a003500a7
:101bf800e50f50003f0032004c003700252ea800aa
:101c0800250ea80024eea8004800370024eea800fe
:101c1800250ea800207180004900de0061406000a8
:101c28000004a200614060000080fb0061006000c9
:101c38004900dd00217180000190a10001007000c1
:101c48002071880039003700250ea80024eea8006e
:101c5800252ea90035003700252ea800d081800048
:101c68000000e800d0818800d0818000e10f50009a
:101c7800080036003a30ef00e08180000000e800fc
:101c8800e0818800e0818000eb0f50000100360001
:101c98003c30ef0010d0bf000080fb00e1818000e5
:101ca800810f50000d003600207180004800de00d2
:101cb800614060000004a200614060000080fb00f9
:101cc800610060004800dd00217180000180a100f2
:101cd800010070002071880014003700250ea8004c
:101ce80012003700252ea800250ea80024eea90012
:101cf8000e00370024eea800250ea80020718000f1
:101d08004900de00614060000004a20061406000fc
:101d18000080fb00610060004900dd002171800047
:101d28000190a1000100700020718800b08180003e
:101d38000000e800b0818800b1818000800c20009c
:101d4800808f5000010036003630ef00018480009b
:101d5800906c2200808f50000c00360013d0bf001a
:101d6800e14f500009003a00508380000000e8006d
:101d7800508388005183800000712200808f5000ba
:101d880004003600246ea80002003700246ea90063
:101d98006a30ef000080fa00000006000200fa0036
:101da800000f78009e0078009181880000000000f4
:101db800908180000000e000fdff3a000080fa00fa
:101dc800000006000000fa0010c0b30011f0b700d0
:101dd8000080fa00000006000000fa0000188000e9
:101de8004500dd00c0838800101880004500dd0034
:101df800d0838800201880004500dd00f08388002b
:101e0800301880004500dd00e0838800401880001d
:101e18004500dd0000848800e1838000f0858000b3
:101e280000805000e0858800e08580000000e00028
:101e380003003500e0858000008688000300370035
:101e4800e08580000000ea00008688000ed0bf0010
:101e5800e24f500007003200008680007186800043
:101e6800810f5000040036000086800070868800cc
:101e780001003700ce30ef00008680006101b90014
:101e8800008780001187800002014000838148009c
:101e9800e4d0bf000080fb0080004000000d21005e
:101ea80000804000100078008000eb000000510026
:101eb800818059000087880011878800008780008a
:101ec800118780004d09dd004300de00000071002d
:101ed800c308de000000780060868800e4d0bf00f8
:101ee8008080fb000286800082017800018140002a
:101ef800010d210081004100830878000040e800be
:101f0800e4f0b700e4d0bf00e74f5000010036000e
:101f1800e470ef006186800020868000808f50008a
:101f2800120036000ed0bf00e14f50000f003a00fb
:101f38002ed0bf00e14f500005003a002dd0bf0061
:101f4800e14f500002003a0001eca90040a7a900a7
:101f58000fd0bf000004e00004003a0010c0b30036
:101f68002ef0b70050c0b3000ff0b700c083800058
:101f780000858800008580006101b80060848000c9
:101f880071848000020040008380480060848800db
:101f980071848800628480007384800010848000cb
:101fa8008000eb00000051008180590060848800a7
:101fb8007184880060848000718480000219200088
:101fc80003002000f3fa070000007800108488005e
:101fd800d083800010858800108580006101b800da
:101fe8008084800091848000020040008380480043
:101ff8008084880091848800828480009384800093
:10200800208480008000eb0000005100818059008e
:102018008084880091848800808480009184800076
:102028000219200003002000dafa070000007800f7
:1020380020848800f0838000208588002085800027
:102048006101b800a0848000b184800002004000d3
:1020580083804800a0848800b1848800a28480001e
:10206800b3848000308480008000eb0000005100c1
:1020780081805900a0848800b1848800a0848000f1
:10208800b18480000219200003002000c1fa070073
:102098000000780030848800e08380003085880064
:1020a800308580006101b800c0848000d184800040
:1020b8000200400083804800c0848800d1848800e2
:1020c800c2848000d3848000408480008000eb00bc
:1020d8000000510081805900c0848800d1848800a4
:1020e800c0848000d18480000219200003002000f1
:1020f800a8fa070000007800408488000084800067
:1021080040858800408580006101b800e084800037
:10211800f18480000200400083804800e084880049
:10212800f1848800e2848000f38480005084800079
:102138008000eb000000510081805900e084880095
:10214800f1848800e0848000f18480000219200076
:10215800030020008ffa07000000780050848800f0
:10216800618580001084800001017800f1ff27005c
:1021780067000700808888007185800020848000bf
:1021880001017800f1ff270012000700708888001d
:10219800818580003084800001017800f1ff2700ec
:1021a800aa0007009088880060868000f600070073
:1021b800a0888800a18580005084800001017800f3
:1021c800f1ff27002c010700b08888000080fa0082
:1021d800000006001400fa00ee01470080097800ac
:1021e8007000470001087800720047000208780074
:1021f80064004700ee0047001108780066004700b9
:10220800f00047001108780068004700f200470016
:1022180011087800640047009000780068004700c3
:10222800100078000080500000f0a7000000ea00cd
:10223800000f78001e0078000000e00002003d005a
:10224800f0ff2700000f78009e00780040ce2000a5
:102258008088b900e6004700910078000101780005
:10226800110009000280d8008000fd006a004700c4
:10227800010878006a00470010007800f100b900f2
:10228800800078006a004700010878006a0047006b
:1022980010017800d0cc2c000010b8004308de00f4
:1022a800ea00b900800051006c004700010878007e
:1022b8006c00470010007800e50f50000900360058
:1022c8006a00470010007800e5004000d0cc2c00e0
:1022d8000008b800c308de000e80e8000108780096
:1022e800070037006a00470090007800d0cc2c0027
:1022f8000008b800c308de000e80e8000108780076
:102308000e80e800100078000080fa000000060047
:102318001800fa00f20147008009780074004700ad
:102328000108780076004700020878000e80e8006f
:10233800f20047001108780064004700f4004700e5
:102348001108780066004700f60047001108780079
:102358000e80e800900078006600470010007800c2
:102368000080500000f0a7000000ea00000f78008d
:102378001e0078000000e00002003d00f0ff27008a
:10238800000f78001e0078008000eb00eaf90700d3
:1023980012302100e3d823000efa07006801470035
:1023a8000089be006800470002002000a3472400ff
:1023b800900090001000780006fa0700c3f90700a3
:1023c8006c014700000978006c0047001001780094
:1023d800d0cc2c000010b8004308de00ea00b90099
:1023e800800051006e004700010878006e00470029
:1023f80010007800e50f5000090036006c00470017
:1024080010007800e5004000d0cc2c000008b8008f
:10241800c308de0070004700010878000700370095
:102428006c00470090007800d0cc2c000008b80061
:10243800c308de0070004700010878006c00470000
:10244800100078000080fa00000006001400fa006e
:10245800ee01470080097800700047000108780005
:10246800720047000208780064004700ee00470049
:102478001108780066004700f0004700110878004e
:1024880068004700f2004700110878006400470020
:102498009000780068004700100078000080500025
:1024a80000f0a7000000ea00000f78001e00780086
:1024b8000000e00002003d00f0ff2700000f780058
:1024c8009e00780040ce20008088b900e6004700d2
:1024d8009100780001017800110009000280d800fd
:1024e8008000fd006a004700010878006a00470084
:1024f80010007800ea00b900800078006a00470000
:10250800010878006a00470010017800d0cc2c0040
:102518000010b8004308de00ea00b900800051004e
:102528006c004700010878006c0047001000780034
:10253800e50f5000090036006a00470010007800d7
:10254800e5004000d0cc2c000008b800c308de002d
:102558000e80e80001087800070037006a0047008d
:1025680090007800d0cc2c000008b800c308de002a
:102578000e80e800010878000e80e800100078005e
:102588000080fa00000006000e00fa00ec00470088
:10259800800878006c004700100f78001e00780053
:1025a8000000e00002003d00f0ff2700000f780067
:1025b8001e0078008000eb005ff907000200200091
:1025c80083ac230083f90700640147000089be003b
:1025d8006400470002002000a347240090009000f8
:1025e800100078007bf9070038f9070068014700f8
:1025f800000978006800470010017800d0cc2c0052
:102608000010b8004308de00ea00b900800051005d
:102618006a004700010878006a0047001000780047
:10262800e50f5000090036006800470010007800e8
:10263800e5004000d0cc2c000008b800c308de003c
:102648000e80e8000108780007003700680047009e
:1026580090007800d0cc2c000008b800c308de0039
:102668000e80e800010878000e80e800100078006d
:102678000080fa00000006001600fa00f00147008a
:10268800800978007200470001087800740047004c
:102698000208780064004700f0004700110878003d
:1026a80066004700f20047001108780068004700fc
:1026b800f400470011087800640047009000780093
:1026c80068004700100078000080500000f0a70064
:1026d8000000ea00000f78001e0078000000e0000b
:1026e80002003d00f0ff2700000f78009e007800f0
:1026f80040ce20008088b900e600470091007800ad
:1027080001017800110009000280d8008000fd0056
:102718006a004700010878006a0047001000780046
:10272800c1e02f0080804000d0cc2c000008b80009
:10273800c308de006c004700010878006c00470001
:1027480010017800d0cc2c000010b8004308de003f
:10275800ea00b900800051006e00470001087800c7
:102768006e00470010007800e50f500009003600a1
:102778006c00470010007800e5004000d0cc2c0029
:102788000008b800c308de000e80e80001087800e1
:10279800070037006c00470090007800d0cc2c0070
:1027a8000008b800c308de000e80e80001087800c1
:1027b8000e80e800100078000080fa000000060093
:1027c8000000fa0016d0bf000080fb00e10f5000a7
:1027d8001b003200e10f500003003c000000e00045
:1027e8000600320030003700e20f500017003200b8
:1027f800e30f5000260032002b003700238ca9007d
:1028080023aca9002000200011fb070020002000b5
:1028180037fb0700300020005dfb07003000200078
:1028280083fb070029d0bf00e14f50001b003a008e
:102838002970ef0010c0b30016f0b7001a00370077
:1028480020c0b30016f0b70017003700238ca8008b
:1028580023aca80030002000fdfa0700300020005b
:1028680023fb07002000200049fb07002000200070
:102878006ffb070029d0bf00e14f500009003a0064
:102888002970ef0030c0b30016f0b700060037001b
:102898001670ef0000000000030037000000000081
:1028a80001003700000000000080fa000000060068
:1028b8000000fa0010848000608588002084800071
:1028c800708588003084800080858800000024009e
:1028d8009085880050848000a08588000080fa00d8
:1028e800000006000000fa001170ef00118480005b
:1028f80000062400808f5000120036001ad0bf0056
:102908000004e0000f003a00508280000000e80058
:10291800508288005182800040062000808f50003d
:10292800210036000fd0bf000004e0001b003a0071
:1029380040c0b3000ff0b70010c0b3001af0b700e2
:102948001900370011848000b0192000808f5000d2
:1029580010003e001ad0bf00e14f50000d003a00b1
:10296800508280000000e800508288005182800078
:1029780000e22400808f50000b0036001a70ef0030
:102988000fd0bf00e44f500006003a000f70ef0070
:10299800050037004a30ef00030037000000000050
:1029a800010037000000000021848000a0d9230026
:1029b800808f50001200360017d0bf000004e000de
:1029c8000f003a00308280000000e8003082880062
:1029d8003182800000712200808f50002100360073
:1029e8000fd0bf000004e0001b003a0010c0b30085
:1029f8000ff0b70010c0b30017f0b7001900370088
:102a08002184800090902300808f500010003e00a9
:102a180017d0bf00e14f50000d003a00308280000f
:102a28000000e800308288003182800000e2240043
:102a3800808f50000b0036001770ef000fd0bf00da
:102a4800e14f500006003a000f70ef000500370014
:102a58004630ef0003003700000000000100370097
:102a6800000000002184800010da2200808f5000ce
:102a780012003e0018d0bf000004e0000f003a002a
:102a8800208280000000e8002082880021828000e7
:102a980000712200808f5000210036000fd0bf0047
:102aa8000004e0001b003a0020c0b3000ff0b7009c
:102ab80010c0b30018f0b700190037002184800057
:102ac80020232300808f50001000360018d0bf004c
:102ad800e14f50000d003a00208280000000e8001d
:102ae800208288002182800000e22400808f50002c
:102af8000b0036001870ef000fd0bf00e24f5000f7
:102b080006003a000f70ef00050037004430ef0070
:102b1800030037000000000001003700000000003b
:102b280031848000e07b2400808f50001200360042
:102b380019d0bf000004e0000f003a004082800076
:102b48000000e800408288004182800040062000a2
:102b5800808f5000210036000fd0bf000004e00035
:102b68001b003a0030c0b3000ff0b70010c0b3002c
:102b780019f0b7001900370031848000d07b240099
:102b8800808f500010003e0019d0bf00e14f500068
:102b98000d003a00408280000000e8004082880072
:102ba8004182800000e22400808f50000b00360034
:102bb8001970ef000fd0bf00e34f500006003a0035
:102bc8000f70ef00050037004830ef0003003700b2
:102bd8000000000001003700000000005184800060
:102be800906c2200808f5000120036001dd0bf006c
:102bf8000004e0000f003a00708280000000e80046
:102c0800708288007182800000e22400808f50006a
:102c1800210036000fd0bf000004e0001b003a007e
:102c280070c0b3000ff0b70010c0b3001df0b700bc
:102c38001900370051848000802e2200808f5000b8
:102c480010003e001dd0bf00e14f50000d003a00bb
:102c5800708280000000e800708288007182800025
:102c680000e22400808f50000b0036001d70ef003a
:102c78000fd0bf00e74f500006003a000f70ef007a
:102c8800050037004e30ef00030037000000000059
:102c9800010037000000000014d0bf00e14f5000d1
:102ca80012003a001ed0bf000004e0000f003a00f6
:102cb800808280000000e800808288008182800095
:102cc80000e22400808f5000200036000fd0bf00a3
:102cd8000004e0001a003a0080c0b3000ff0b7000b
:102ce80010c0b3001ef0b7001800370014d0bf00a2
:102cf8000004e00010003a001ed0bf00e14f500071
:102d08000d003a00808280000000e8008082880080
:102d18008182800000e22400808f50000b00360082
:102d28001e70ef000fd0bf00e84f500006003a00b9
:102d38000f70ef00050037005030ef000300370038
:102d480000000000010037000000000011d0bf00a3
:102d5800e14f500012003a001fd0bf000004e0000d
:102d68000f003a00a08280000000e800a0828800de
:102d7800a1828000007d2000808f50002000360056
:102d88000fd0bf000004e0001a003a0090c0b30062
:102d98000ff0b70010c0b3001ff0b70018003700dd
:102da80011d0bf000004e00010003a001fd0bf009f
:102db800e14f50000d003a00a08280000000e800ba
:102dc800a0828800a1828000007d2000808f5000b2
:102dd8000b0036001f70ef000fd0bf00e94f500006
:102de80006003a000f70ef00050037005430ef007e
:102df8000300370000000000010037000000000059
:102e08000080fa00000006000000fa0071838000cc
:102e180040062000808f5000020036004006200047
:102e280070838800508080000000e00001003d00b1
:102e38000a30ef006083800080004000c0892800cd
:102e48000080400010007800808388005080800057
:102e58006101b900808380008000eb00809ab9008e
:102e6800828bb90086027800050242000010b80083
:102e7800010242008400780090838800a1838800c2
:102e880090838000a1838000f2ff270003002000c8
:102e980040f7070000007800b0838800b183800005
:102ea80080bb2000808f50000200360080bb2000cd
:102eb800b0838800b0838000506088000080fa00ea
:102ec800000006000000fa0030c0b3000903070044
:102ed800c0c9b3000703070080c1b300050307009a
:102ee80010848000004078000203070010848000ee
:102ef8004800de0000407800fe02070020848000c1
:102f080000407800fb020700208480004800de00b3
:102f180000407800f7020700308480000040780005
:102f2800f4020700308480004800de00004078008a
:102f3800f00207004084800000407800ed0207009e
:102f4800408480004800de0000407800e902070065
:102f58005084800000407800e6020700508480001a
:102f68004800de0000407800e2020700e0858000ab
:102f780000407800df020700e08580004880de001e
:102f880000407800db020700f085800000407800f0
:102f9800d8020700f08580004880de0000407800f5
:102fa800d40207007086800000407800d102070034
:102fb800708680004800de0000407800cd020700df
:102fc8006086800000407800ca02070060868000a2
:102fd8004800de0000407800c60207002086800016
:102fe80000407800c3020700208680004800de0009
:102ff80000407800bf0207000ed0bf00bd020700e6
:103008000fd0bf00bb0207002ed0bf00b9020700d7
:103018002dd0bf00b70207008081800000407800f3
:10302800b402070014d0bf00b202070014d0bf00da
:10303800b002070014d0bf00ae02070014d0bf00d2
:10304800ac020700c0cfb300aa0207000080fa0054
:10305800000006000000fa0020142100008088000b
:10306800a0ff210010808800000021008bf60700d7
:103078000080800071142200010878000080800020
:103088000080e80061662e0001087800008080005a
:10309800640040008000eb0001087800f0838000a5
:1030a8004500dd00408088000630ef000080fa000f
:1030b800000006000000fa002014210000808800ab
:1030c800a0ff2100108088000000210051f60700b1
:1030d8002080800050808800c089210040808800be
:1030e800f083800030808800008080007114220006
:1030f80001087800008080000080e80061662e00ea
:103108000108780000808000640040008000eb0027
:10311800010878001080800064004000e1ff800012
:1031280001087800108080000080e800d1ff80004e
:103138000108780011808000f2838000c089210096
:1031480002005000800878000080fa0000000600a5
:103158000000fa0005003700400120000ffb0700bf
:10316800408080000000e8004080880041808000a6
:10317800c0892100808f5000f7ff3400c0892100ea
:10318800408088000080fa00000006000000fa0075
:10319800f7030700a0bb2000c8020700cf02070002
:1031a800c0b62000150307001c03070060ee2000ce
:1031b8003102070000ef200011040700a5ff0700f7
:1031c80024eea800250ea800252ea800803e200089
:1031d800f2fa0700b6fd070040a7a800ffff370076
:1031e8000000fa0007e2a9000080fa0000000600cb
:1031f8000000fa002228a8002208a8000080fa008f
:10320800000006000000fa00104180006200600023
:103218000000e00004003a001041800061006000f6
:103228000000e0000200320010002000010037001a
:103238000000eb00004078000080fa000000060063
:103248000000fa002228a9002208a9000080fa003c
:10325800000006000000fa000228a9000208a900e0
:103268000080fa00000006000000fa000228a8000a
:103278000208a8000080fa00000006000200fa0018
:10328800000f780010408000620060000000e0003d
:1032980010003a0010408000610060000000e0006b
:1032a8000c003a0010408000620060000000e0005e
:1032b80008003a0010408000610060000000e00053
:1032c80004003a004076210001002000d2030700e4
:1032d800f4ff37000080fa00000006000000fa0042
:1032e8003110800000002800008060000000e0002d
:1032f80007003a000822ef00000428003010880078
:10330800f00820002010880010c0b300010037002a
:103318000040eb000080fa00000006000000fa0000
:103328003110800000002800008060000000e000ec
:1033380004003a0006c2a80007e2a80010c0b300c3
:10334800010037000040eb000080fa000000060092
:103358000000fa000080fa00000006000000fa00f1
:103368000602a8000080fa00000006000000fa002b
:103378000622a8000080fa00000006000000fa00fb
:103388000642a8000080fa00000006000000fa00cb
:10339800401080004f00de00004078000080fb00f5
:1033a80000f0a7000000ea000000ea004f00de007d
:1033b800004078000080fa00000006000000fa00d3
:1033c8000662a8000080fa00000006000000fa006b
:1033d80000108000004078000080fa00000006001d
:1033e8000200fa00004f78001e80fb0010108800d1
:1033f8000080fa00000006000000fa0006a2a900fa
:103408000682a8000080fa00000006000000fa000a
:1034180006a2a8000682a8000080fa0000000600a4
:103428000000fa000782a8000080fa0000000600e9
:103438000000fa0040108000620060000000e00018
:1034480004003a0040108000610060000000e000c5
:103458000200320010002000010037000000eb00dd
:10346800004078000080fa00000006000000fa0022
:10347800401080004300de00614060000080fb00d7
:1034880000f0a7000000ea000000ea004f00de009c
:10349800004078000080fa00000006000000fa00f2
:1034a80041108000000220000080600000f0a700aa
:1034b8000000ea000000e9004f00de00004078004c
:1034c8000080fa00000006000000fa0040108000aa
:1034d8004400de00614060000080fb0000f0a700af
:1034e8000000ea000000ea004f00de00004078001b
:1034f8000080fa00000006000000fa00401080007a
:103508004500de00614060000080fb0000f0a7007d
:103518000000ea000000ea004f00de0000407800ea
:103528000080fa00000006000000fa004010800049
:103538004200de00614060000080fb0000f0a70050
:103548000000ea000000ea004f00de0000407800ba
:103558000080fa00000006000000fa000942a900f5
:103568000080fa00000006000000fa000080fa005f
:10357800000006000000fa000080fa0000000600c3
:103588000000fa000080fa00000006000000fa00bf
:103598000080fa00000006000200fa00000f780020
:1035a8009e007800e18988000080fa00000006008b
:1035b8000200fa00000f78009e007800f189880068
:1035c8000080fa00000006000200fa00000f7800f0
:1035d8009e007800018a88000080fa00000006003a
:1035e8000000fa00003a80000080fa00000006009f
:1035f8000200fa00faff0700000f78001e007800aa
:10360800240007000004e000020032000000280047
:103618007d0007001e0078002c0007000004e00071
:103628000200320000002400770007001e00780026
:10363800360007000004e0000200320000202000ed
:10364800710007001e007800400007000004e00039
:1036580002003200000820006b0007001e007800fe
:103668004a0007000004e0000200320000042000c5
:10367800650007001e007800540007000004e00001
:1036880002003200000120005f0007000080fa00fd
:10369800000006000400fa008e80e8008008780028
:1036a8000040eb00004f78000e80e8001000780022
:1036b8000000e00002003d0010c0b300004f780099
:1036c8001e4078000080fa00000006000400fa009e
:1036d8008e80e800800878000040eb00004f7800fa
:1036e8000e80e80090007800000024000080600050
:1036f8000000e0000200320010c0b300004f780064
:103708001e4078000080fa00000006000400fa005d
:103718008e80e800800878000040eb00004f7800b9
:103728000e80e800900078000020200000806000f3
:103738000000e0000200320010c0b300004f780023
:103748001e4078000080fa00000006000400fa001d
:103758008e80e800800878000040eb00004f780079
:103768000e80e800900078000008200000806000cb
:103778000000e0000200320010c0b300004f7800e3
:103788001e4078000080fa00000006000400fa00dd
:103798008e80e800800878000040eb00004f780039
:1037a8000e80e8009000780000042000008060008f
:1037b8000000e0000200320010c0b300004f7800a3
:1037c8001e4078000080fa00000006000400fa009d
:1037d8008e80e800800878000040eb00004f7800f9
:1037e8000e80e80010007800700060000000e00023
:1037f8000200320010c0b300004f78001e4078006d
:103808000080fa00000006000200fa00000f7800ad
:103818001e80ea00013a800001006000003a88003a
:103828000080fa00000006000000fa004027ef00c0
:103838000080fa00000006000000fa00022cef00e9
:1038480080bb20002060880000ee220030608800e5
:103858000a2cef001a2cef001e2cef00403020003d
:10386800006188004030200000628800403021005c
:103878000063880000002c00e3c1200011322400fe
:10388800d2bc2a008209780081097800106188007a
:1038980000042c00e3c1200011322400d2bc2a000d
:1038a80082097800810978001062880000042c00e1
:1038b800e3c1200011322400d2bc2a00820978001a
:1038c800810978001063880030002000e3c12000df
:1038d80011322400d2bc2a008209780081097800bc
:1038e8002061880030002000e3c12000113224004c
:1038f800d2bc2a00820978008109780020628800f9
:1039080030002000e3c1200011322400d2bc2a007c
:103918008209780081097800206388006009200006
:1039280030618800462cef00662cef0080bb200039
:103938004061880080bb20004062880080bb200076
:1039480040638800800c200050618800800c2000b3
:1039580050628800800c200050638800800c200092
:1039680060618800800c200060628800800c200064
:1039780060638800322cef00522cef00722cef00ad
:10398800342cef00542cef00742cef003a2cef008d
:103998005a2cef007a2cef003c2cef005c2cef0047
:1039a8007c2cef003e2cef005e2cef007e2cef000d
:1039b800a0d32100300007000c08a9002c08a8009b
:1039c80000102800006088000080fa00000006004f
:1039d8000000fa000080fa00000006000000fa006b
:1039e8003140800000202000008060000000e000de
:1039f80002003200f6ff07000728a9000080fa003d
:103a0800000006000000fa000080fa00000006002e
:103a18000000fa0031408000002020000080600093
:103a28000000e00002003200f6ff07000bc8a90002
:103a38000080fa00000006000000fa000080fa008a
:103a4800000006000000fa0031408000002020003d
:103a5800008060000000e00002003200f6ff07006e
:103a68000be8a9000080fa00000006000000fa0038
:103a78000080fa00000006000200fa00000f78003b
:103a88001e007800908a88000080fa000000060076
:103a98000000fa0080002000001188002222ef00b8
:103aa800606120004011880021e2a8002342a8009c
:103ab8000080fa00000006000000fa000000000084
:103ac80010118000610060000000e000fcff32007f
:103ad80010118000620060000000e0000100320068
:103ae8002222a90030118000004078000080fa00ee
:103af800000006000200fa00004f780000000000f5
:103b08001111800000202000008060000000e0000b
:103b1800fbff3a001e80fb00201188000080fa009d
:103b2800000006000000fa00101180000040780034
:103b3800614060000080fb0000f0a7000000ea0080
:103b48000000ea004f00de00004078000080fa0024
:103b5800000006000000fa0011118000001020008b
:103b6800008060000000e0000700320011118000b2
:103b780000402000008060000000e00002003200e9
:103b880010002000010037000000eb000040780022
:103b98000080fa00000006000000fa001011800002
:103ba8004800de00614060000080fb0000f0a700d4
:103bb8000000ea000000ea004f00de000040780044
:103bc8000080fa00000006000000fa0010118000d2
:103bd8000080fa00000006000000fa00d1ff07008c
:103be8000080fa00000006000000fa00d9ff070074
:103bf8000080fa00000006000000fa00c9ff070074
:103c08000080fa00000006000000fa00e2ff07004a
:103c18000080fa00000006000000fa000621ef000c
:103c2800c02e200060088800000128008008880055
:103c3800408a80000000e00002003a00c0e5210050
:103c48001e00070000e8a90020e8a8004a71ef005c
:103c58000080fa00000006000200fa00000f780059
:103c68009e007800610888004a71ef000080fa0021
:103c7800000006000000fa00600880000080fa00da
:103c8800000006000200fa00000f78009e0078008d
:103c9800310888004a71ef000080fa000000060031
:103ca8000000fa00300880000080fa0000000600da
:103cb8000000fa000080fa00000006000200fa0086
:103cc800000f780020e8a9009e007800418a88004b
:103cd80020e8a8000080fa00000006000000fa00b2
:103ce8004a71ef0020e8a80011e1a8000080fa005e
:103cf800000006000000fa0011e1a90020e8a90070
:103d08000080fa00000006000200fa00a114210059
:103d180091407800014f78001e4078000004e000d0
:103d2800010032004a71ef001e4078000080fa005e
:103d3800000006000000fa004bd1bf000080fb0025
:103d48000080fa00000006000000fa004b71ef0046
:103d58000080fa00000006000000fa000a21ef00c7
:103d680010bb200070088800000028009008880018
:103d7800608a80000000e00002003a00c0ef2100e5
:103d88001e0007000108a9002108a8004e71ef00d5
:103d98000080fa00000006000200fa00000f780018
:103da8009e007800710888004e71ef000080fa00cc
:103db800000006000000fa00700880000080fa0089
:103dc800000006000200fa00000f78009e0078004c
:103dd800510888004e71ef000080fa0000000600cc
:103de8000000fa00500880000080fa000000060079
:103df8000000fa000080fa00000006000200fa0045
:103e0800000f78002108a9009e007800618a8800c8
:103e18002108a8000080fa00000006000000fa004f
:103e28004e71ef002108a80013e1a8000080fa00f5
:103e3800000006000000fa0013e1a9002108a9000b
:103e48000080fa00000006000200fa00e1142100d8
:103e580091407800014f78001e4078000004e0008f
:103e6800010032004e71ef001e4078000080fa0019
:103e7800000006000000fa004fd1bf000080fb00e0
:103e88000080fa00000006000000fa004f71ef0001
:103e98000080fa00000006000000fa00042eef007f
:103ea800142eef00242eef007059200000708800b7
:103eb800f02f2000807088003007200000718800f3
:103ec8000c2eef001c2eef002c2eef000a2eef0018
:103ed8001a2eef002a2eef00062eef00162eef0006
:103ee800262eef003000200070708800f0002000bf
:103ef800f07088003000200070718800113a80004e
:103f0800f00b200000816000600420007105200093
:103f1800237420008049780081497800824978001c
:103f2800c135800000f82f00008060008001b300d8
:103f3800c03588003134800000fc2f00008060000c
:103f48000000a000303488002136800000f82f00df
:103f58008080600070022000010070002036880018
:103f6800103a8000000178000260a0006004200080
:103f78007105200023742000804978008149780069
:103f8800824978000080fa00000006000000fa006c
:103f980000002300203a88004827ef004e27ef0052
:103fa800f0032000303a88006027ef006227ef0016
:103fb8006427ef006627ef006a27ef006c27ef0001
:103fc8001200200080072000a1092000337420007f
:103fd80080497800814978008249780012002000e1
:103fe80060042000710520002374200080497800b7
:103ff800814978008249780000000000103a80006a
:10400800610060000000e000fcff3a0000000000d2
:10401800113a800000022000008060000000e000eb
:10402800fbff32000080fa00000006000000fa00e2
:104038008143800080ff2f00008060000000a00006
:104048008043880031428000f0f82f0080806000b3
:1040580000052000010070003042880041428000c5
:10406800f0f82f00008060000040a0004042880067
:104078004142800080ff2f00008060000000a00007
:10408800404288002142800080ff2f0000806000ad
:104098006000b3002042880011428000f0ff280031
:1040a8000080600000e0a000104288000080fa0054
:0440b80000000600fe
:020000040000fa
:1040bc00501100000200000082000000ffff000011
:1040cc001c110000200000008000000052110000b4
:1040dc0002000000800000005411000002000000eb
:1040ec008000000048110000040000008000000067
:1040fc004c11000004000000800000003c11000086
:10410c000600000080000000001000001c010000f0
:10411c00800000004211000006000000800000003a
:10412c00fa1f0000060000008000000000000000e4
:020000040000fa
:10413c000200fa00000f780021028000200f2000fe
:10414c00008060001e007000200288000080fa00d1
:10415c00000006000000fa00c3e8a8000000000000
:10416c00000000000080fa00000006000000fa00c9
:10417c0048ff0700acff070083ff070043fe070062
:10418c0008000700f3fe0700aafd0700a1fe0700c8
:10419c00f0ff070000022000e5ff07000080fa0096
:1041ac00000006000000fa006004280000198800d6
:1041bc008041200010198800401020002019880030
:1041cc002823ef0000002c0070198800f01c200040
:1041dc00801988003223ef002623ef00e00f220025
:1041ec000600070021a8a8000080fa0000000600c5
:1041fc000000fa000080fa00000006000200fa003d
:10420c00000f78001e007800a08a88000080fa0059
:04421c000000060098
:020000040000fa
:10422000f03fb1000180b10006003500ee03090047
:1042300000000000403fb1000180b100fbff3d00e5
:104240001000b000203fb0000200350000800900df
:08425000000000000000060060
:020000040000fa
:104258000200fa00000f78009e007800818a88002a
:10426800ffff37000000fa00c01121008007780026
:1042780040132100000188000080fa0000000600b9
:020000040000fa
:04afe000ceff0000a0
:020000040000fa
:04afe400ffff00006b
:020000040000fa
:04afe80065ff000001
:020000040000fa
:04afec007bff0000e7
:020000040000fa
:04aff00038ff000026
:020000040000fa
:04aff400ffffff005c
:00000001FF
