:020000040000fa
:080000000002040000000000f2
:020000040000fa
:040008001a030000d7
:020000040000fa
:04000c005c03000091
:020000040000fa
:04001000bc0300002d
:020000040000fa
:040014003a030000ab
:020000040000fa
:040018007c03000065
:020000040000fa
:04001c009c03000041
:020000040000fa
:04002000dc030000fd
:020000040000fa
:040024000a050000c9
:020000040000fa
:040028000a050000c5
:020000040000fa
:04002c000a050000c1
:020000040000fa
:040030000a050000bd
:020000040000fa
:040034000a050000b9
:020000040000fa
:040038000a050000b5
:020000040000fa
:04003c000a050000b1
:020000040000fa
:040040000a050000ad
:020000040000fa
:040044006e04000046
:020000040000fa
:040048009e04000012
:020000040000fa
:04004c000a050000a1
:020000040000fa
:040050000a0500009d
:020000040000fa
:040054000a05000099
:020000040000fa
:040058000a05000095
:020000040000fa
:04005c002e0400006e
:020000040000fa
:040060000a0500008d
:020000040000fa
:040064000a05000089
:020000040000fa
:04006800ec040000a4
:020000040000fa
:04006c00ce040000be
:020000040000fa
:040070000a0500007d
:020000040000fa
:040074000a05000079
:020000040000fa
:040078000a05000075
:020000040000fa
:04007c000a05000071
:020000040000fa
:040080000a0500006d
:020000040000fa
:040084000a05000069
:020000040000fa
:040088000a05000065
:020000040000fa
:04008c000a05000061
:020000040000fa
:040090000a0500005d
:020000040000fa
:040094000a05000059
:020000040000fa
:040098000a05000055
:020000040000fa
:04009c000a05000051
:020000040000fa
:0400a0000a0500004d
:020000040000fa
:0400a4000a05000049
:020000040000fa
:0400a8000a05000045
:020000040000fa
:0400ac000a05000041
:020000040000fa
:0400b0000a0500003d
:020000040000fa
:0400b4000a05000039
:020000040000fa
:0400b8000a05000035
:020000040000fa
:0400bc000a05000031
:020000040000fa
:0400c0000a0500002d
:020000040000fa
:0400c4000a05000029
:020000040000fa
:0400c8000a05000025
:020000040000fa
:0400cc000a05000021
:020000040000fa
:0400d0000a0500001d
:020000040000fa
:0400d4000a05000019
:020000040000fa
:0400d8000a05000015
:020000040000fa
:0400dc000a05000011
:020000040000fa
:0400e0000a0500000d
:020000040000fa
:0400e4000a05000009
:020000040000fa
:0400e8000a05000005
:020000040000fa
:0400ec000a05000001
:020000040000fa
:0400f0000a050000fd
:020000040000fa
:0400f4000a050000f9
:020000040000fa
:0400f8000a050000f5
:020000040000fa
:0400fc000a050000f1
:020000040000fa
:040100000a050000ec
:020000040000fa
:040104000a050000e8
:020000040000fa
:040108000a050000e4
:020000040000fa
:04010c000a050000e0
:020000040000fa
:040110000a050000dc
:020000040000fa
:040114000a050000d8
:020000040000fa
:040118000a050000d4
:020000040000fa
:04011c000a050000d0
:020000040000fa
:040120000a050000cc
:020000040000fa
:040124000a050000c8
:020000040000fa
:040128000a050000c4
:020000040000fa
:04012c000a050000c0
:020000040000fa
:040130000a050000bc
:020000040000fa
:040134000a050000b8
:020000040000fa
:040138000a050000b4
:020000040000fa
:04013c000a050000b0
:020000040000fa
:040140000a050000ac
:020000040000fa
:040144000a050000a8
:020000040000fa
:040148000a050000a4
:020000040000fa
:04014c000a050000a0
:020000040000fa
:040150000a0500009c
:020000040000fa
:040154000a05000098
:020000040000fa
:040158000a05000094
:020000040000fa
:04015c000a05000090
:020000040000fa
:040160000a0500008c
:020000040000fa
:040164000a05000088
:020000040000fa
:040168000a05000084
:020000040000fa
:04016c000a05000080
:020000040000fa
:040170000a0500007c
:020000040000fa
:040174000a05000078
:020000040000fa
:040178000a05000074
:020000040000fa
:04017c000a05000070
:020000040000fa
:040180000a0500006c
:020000040000fa
:040184000a05000068
:020000040000fa
:040188000a05000064
:020000040000fa
:04018c000a05000060
:020000040000fa
:040190000a0500005c
:020000040000fa
:040194000a05000058
:020000040000fa
:040198000a05000054
:020000040000fa
:04019c000a05000050
:020000040000fa
:0401a0000a0500004c
:020000040000fa
:0401a4000a05000048
:020000040000fa
:0401a8000804000047
:020000040000fa
:0401ac000a05000040
:020000040000fa
:0401b0000a0500003c
:020000040000fa
:0401b4000a05000038
:020000040000fa
:0401b8000a05000034
:020000040000fa
:0401bc000a05000030
:020000040000fa
:0401c0000a0500002c
:020000040000fa
:0401c4000a05000028
:020000040000fa
:0401c8000a05000024
:020000040000fa
:0401cc000a05000020
:020000040000fa
:0401d0000a0500001c
:020000040000fa
:0401d4000a05000018
:020000040000fa
:0401d8000a05000014
:020000040000fa
:0401dc000a05000010
:020000040000fa
:0401e0000a0500000c
:020000040000fa
:0401e4000a05000008
:020000040000fa
:0401e8000a05000004
:020000040000fa
:0401ec000a05000000
:020000040000fa
:0401f0000a050000fc
:020000040000fa
:0401f4000a050000f8
:020000040000fa
:0401f8000a050000f4
:020000040000fa
:0401fc000a050000f0
:020000040000fa
:040200000a050000eb
:020000040000fa
:040204000a050000e7
:020000040000fa
:040208000a050000e3
:020000040000fa
:04020c000a050000df
:020000040000fa
:040210000a050000db
:020000040000fa
:040214000a050000d7
:020000040000fa
:040218000a050000d3
:020000040000fa
:04021c000a050000cf
:020000040000fa
:040220000a050000cb
:020000040000fa
:040224000a050000c7
:020000040000fa
:040228000a050000c3
:020000040000fa
:04022c000a050000bf
:020000040000fa
:040230000a050000bb
:020000040000fa
:040234000a050000b7
:020000040000fa
:040238000a050000b3
:020000040000fa
:04023c000a050000af
:020000040000fa
:040240000a050000ab
:020000040000fa
:040244000a050000a7
:020000040000fa
:040248000a050000a3
:020000040000fa
:04024c000a0500009f
:020000040000fa
:040250000a0500009b
:020000040000fa
:040254000a05000097
:020000040000fa
:040258000a05000093
:020000040000fa
:04025c000a0500008f
:020000040000fa
:040260000a0500008b
:020000040000fa
:040264000a05000087
:020000040000fa
:040268000a05000083
:020000040000fa
:04026c000a0500007f
:020000040000fa
:040270000a0500007b
:020000040000fa
:040274000a05000077
:020000040000fa
:040278000a05000073
:020000040000fa
:04027c000a0500006f
:020000040000fa
:040280000a0500006b
:020000040000fa
:10040000cf162100aefe21000e0188000000000082
:10041000000020000000e000020032000001200087
:100420002002880014000700a90107000000e00076
:1004300003003a00002722000100200002003700dc
:100440000000200001002000810f70000100320038
:100450000f000700000020000000e0000200320052
:100460000000020000000000201b0200000000004d
:100470000040da000000fe00001920000000e0004b
:1004800002003200002020009001880000000600d9
:10049000a1028800800478000000eb001f003700f4
:1004a000e284440054a0b4009905ba00e2844400f8
:1004b00054a0b4009906ba00e284440054a0b400e9
:1004c0000006eb00476fde00fd07b200ae018800ba
:1004d000636ce10003003a000ad801000000eb0061
:1004e0000e003700606ce10008003a00004deb00a0
:1004f0000a05e800020039003420ec000af0a000f0
:100500008b05e900f9ff3e00040037006168e10057
:10051000010032000086eb000b00070019c7ba008b
:100520000e04e0001905ba0003003a000a00e000da
:10053000dbff3a0000000600fe07b200ae028800b2
:100540008a047800f5ff37000cd0a300e20f4d00bd
:100550001c003b0089027800354dba000a05e8000e
:10056000020039003420ec000af0a0008b05e900fd
:100570000f003200254dba000a05e80002003900dc
:100580003420ec000af0a0008b05e90008003200de
:100590000c00e0000600320015cdba000a05e800a4
:1005a000020039003420ec000af0a0008b05e900bd
:1005b0008984e80054a0b4000b00e000e2ff3a0098
:1005c000000006009902ba00055d78008b05e9007d
:1005d000f7ff3200c82ade00055d78008b05e900d0
:1005e000f3ff32000c00e000f1ff320019ddba0029
:1005f000eeff3700000000000000000000000000d7
:1006000000000000000000000000000000000000ea
:1006100000000000000000000000000000000000da
:1006200000000000000000000000000000000000ca
:10063000000000003600f800809fbe00829fbe00d0
:10064000849fbe00869fbe000000fa00c028a9005b
:100650000000eb002e1007000080fa004f03be00e0
:100660004f02be004f01be004f00be003600f90031
:10067000004006003600f800809fbe00829fbe004a
:10068000849fbe00869fbe000000fa002510070070
:10069000c048a900100020001d1007000080fa00cb
:1006a0004f03be004f02be004f01be004f00be0010
:1006b0003600f900004006003600f800809fbe00ba
:1006c000829fbe00849fbe00869fbe000000fa008d
:1006d000c068a900200020000d1007000080fa006b
:1006e0004f03be004f02be004f01be004f00be00d0
:1006f0003600f900004006003600f800809fbe007a
:10070000829fbe00849fbe00869fbe000000fa004c
:10071000c088a90030002000fd0f07000080fa000b
:100720004f03be004f02be004f01be004f00be008f
:100730003600f900004006003600f800809fbe0039
:10074000829fbe00849fbe00869fbe000000fa000c
:10075000c0a8a90040002000ed0f07000080fa00ab
:100760004f03be004f02be004f01be004f00be004f
:100770003600f900004006003600f800809fbe00f9
:10078000829fbe00849fbe00869fbe000000fa00cc
:10079000c608a90070002000dd0f07000080fa00e5
:1007a0004f03be004f02be004f01be004f00be000f
:1007b0003600f900004006003600f800809fbe00b9
:1007c000829fbe00849fbe00869fbe000000fa008c
:1007d0002146800000022000008060000000e00050
:1007e00003003200c4a8a90090002000c80f070031
:1007f00020468000700060000000e000030032002e
:10080000c488a900a0002000c10f0700ffff370027
:100810003600f800809fbe00829fbe00849fbe000d
:10082000869fbe000000fa00308b80000000e000d0
:1008300002003200308b8000000001000c08a9008b
:100840000080fa004f03be004f02be004f01be0001
:100850004f00be003600f900004006003600f800e8
:10086000809fbe00829fbe00849fbe00869fbe0008
:100870003200f8003400f80010002000a0018800c9
:100880000020200000d0fe000000fa00014080009f
:1008900000002200008060000000e000060032003e
:1008a000408b80000000e00002003200408b80009e
:1008b0000000010001a8a9000080fa003400f9003e
:1008c0003200f9004f03be004f02be004f01be00d0
:1008d0004f00be003600f900004006003600f80068
:1008e000809fbe00829fbe00849fbe00869fbe0088
:1008f0000000fa00e08a80000000e0000200320000
:10090000e08a8000000001005fd1bf000040e800e5
:100910005ff1b70010c0b3005ef1b70000e8a900b6
:100920000080fa004f03be004f02be004f01be0020
:100930004f00be003600f900004006003600f80007
:10094000809fbe00829fbe00849fbe00869fbe0027
:100950000000fa00008b80000000e000020032007e
:10096000008b80000000010063d1bf000040e80060
:1009700063f1b70010c0b30062f1b7000108a9002d
:100980000080fa004f03be004f02be004f01be00c0
:100990004f00be003600f900004006003600f800a7
:1009a000809fbe00829fbe00849fbe00869fbe00c7
:1009b0000000fa00908a8000000001000080fa0028
:1009c0004f03be004f02be004f01be004f00be00ed
:1009d0003600f900004006003600f800809fbe0097
:1009e000829fbe00849fbe00869fbe000000fa006a
:1009f000a08a8000000001000080fa004f03be00c2
:100a00004f02be004f01be004f00be003600f9008d
:100a1000004006000040da000000fe0000a0fe00da
:100a2000841f7800851f7800881f78008a1f78004f
:100a30004400f800080f20002802880000049000fd
:100a400010059000a000900030019000c0019000bf
:100a50000300ca000280ca000030cb001a00cd009b
:100a60004604c3000100ca004604c0001e04c000c2
:100a70000605c0000100cd0021009800050d78009a
:100a8000eaba9700052578004400f9004f05780080
:100a90004f047800cf0278004f0278000080fe00fb
:100aa00000000600801f78004000b0000008eb0046
:100ab0004f007800801f7800100090000018eb00b5
:100ac0000018eb000008eb004f0078000000060063
:100ad000000005000001be001e0007000470a70012
:100ae00003f0a10003f8a30013003a006509b10068
:100af00010003200090035006928e10002003500cd
:100b0000010028000000050000004000818048002e
:100b10008502e900fcff3a0000000600f88f420061
:100b2000050035008100d1000080d3008502e80077
:100b3000fcff3a00000006008000eb00000005000a
:100b40004f89de00820178007c0337006011b80015
:100b50008a033700c70ade00f107b200f50fb200c2
:100b600008003200e1cf4200020032000170a00014
:100b700024000500810f7000010032000408050008
:100b800044000500810f700002003a0014000500c7
:100b90008502e9000000400081c04800fcff3b00e6
:100ba0000170a000240005006022b80006022000a9
:100bb0000000d0008180d2000482d2008582d20061
:100bc0000000a0000202520083825a00030031009c
:100bd0000202420083824a000000a1000603e900ed
:100be000f3ff3a000000060007f8270007836100c2
:100bf0000638e10004003a00f7072000878361000f
:100c00008703710001003a0003f0a200889fbe0034
:100c10008a9fbe008c9fbe00470ade000480a100b0
:100c2000c71ade000580a1000700280007856000c4
:100c300087856100f70f20000720e1009e00320049
:100c40000728e1009c003200010678000400e00063
:100c5000b4003200f7072000878060000170a00018
:100c60000500e000c0003200f70720008781610026
:100c70000370a000050652000f003a000b50e1007f
:100c80000b0032000308e10002003a000200e1001c
:100c90007e003200020450008384580004003100ba
:100ca0000001fd008101fd008402fd008a05fd00b8
:100cb0006044b800210037000520e10005003d0038
:100cc0000001fd008101fd008402fd008a05fd0098
:100cd000050652007a60e100050035000170a100b0
:100ce0004722dd00848070008a8070006300370036
:100cf0006044b800ef02660007ff2f000706660099
:100d00000500e00006003400f08312008714dd00c7
:100d10000511de00071bdd00060171008519de00ec
:100d20007060e10005003500090478008204780055
:100d3000030178008001eb00700656000b50e100c3
:100d400003003a000200400083804800040037009e
:100d500060041400e0841c000200580083805800e6
:100d60000188a300060032008100d1000080d3007a
:100d70008984d3000884d3000402e80027003700e8
:100d80000178a30025003a000100e00003003200d2
:100d90008186cf00698656000a0037008c0020004b
:100da0000000e00004003a000900780088047800a0
:100db0000004eb00700252008086cf000d06460052
:100dc0000c06e9007060e100060035008000780044
:100dd00009007800880478000004eb0070065600d3
:100de000700252000c00e0000c0034008c08dd00a2
:100df000f00316000703de00868070000c00dd00a3
:100e0000074bde00060070008c4cdd000743de005f
:100e1000868474000c44dd000c0252006120e10065
:100e20002000350061016000070028008781640010
:100e3000f7ff270087836400070374000300e000c6
:100e40000600320082037300040032000000e80054
:100e5000e08048000188a3000e003a00f70f200050
:100e60000720e1004a003d000170a1004722dd009b
:100e7000810072008a8070000000be004f06be0034
:100e80004f05be004f04be00000006006000b80021
:100e9000faff37008100d1000080d3000402e8008f
:100ea000eeff37000401780089017400a1010700fa
:100eb0008a807000f1ff3700f70107000702780011
:100ec0000001fd008101fd00f301070087027800a9
:100ed000850372000778a300040032000001fd00c2
:100ee0008101fd0006020700e4ff37008503620070
:100ef0000768a300080032000b50e1000300320035
:100f0000f0ff2f00f1ff2700dcff37000001fd009c
:100f10008101fd00d9ff37000468a300d7ff32002c
:100f2000faff3700f8ff2700888360000b003a00c3
:100f30000000e00009003a0083036400828373002c
:100f4000020032000200be00ccff37000b50e1006f
:100f5000ceff3a000200be00c8ff37001400200098
:100f6000810064003eff3700f8ff2700888361009e
:100f700004003a000200e00002003a008c00780011
:100f8000beff3700150020008301640039ff3700e1
:100f900001f827000000200081007500b7ff37002e
:100fa000889fbe008a9fbe008c9fbe001b00200051
:100fb0000202be00058668000600280006066600dc
:100fc0004709de00f20fb200820032000243e8005f
:100fd00080003200c729de00f30fb2007d0032002e
:100fe0000343e8007b003200f107b2000170a0006b
:100ff000f507b2000570a000c708dd004903de0058
:10100000868070004700dd00c72add004923de002e
:10101000868272004722dd00030551000403500060
:1010200085835800030031000000400081804800a3
:101030000a05e9008c1f78008a9fbe00040050005a
:10104000858058000402420085824a00000040006a
:10105000818048000005eb000004be006033b8004a
:101060000406be000d48e1005600310011000900e1
:101070004dccd8000c01b8000d02b80084814100ad
:1010800060824a008283530003045c0084845c0015
:1010900060055d000a00e00025003a008005780048
:1010a0000d40e10049003100880078000700780019
:1010b000110009004d88d8000c01b8000d02b800dd
:1010c0008481410060824a006003110083835b00d9
:1010d00004045c00e0845c000900e00021003a00a8
:1010e0004f01be000300e0002b003200e30160006e
:1010f000070673008c8171000100320064007000eb
:101100004200de004e5edd000c007000c258de00c2
:1011100001e0a00083010700cf0178008180710009
:101120004f06be004f05be004f04be000000060083
:101130008c8343000d044c00e0844c0060054d009e
:101140000000e9000a00e000d4ff32008c83430075
:101150000d044c00e0844c0060054d000000e900e7
:10116000ceff37000c0343008d834b0060044c001e
:10117000e0844c000000e9000900e000d8ff3200e4
:101180000c0343008d834b0060044c00e0844c0052
:101190000000e900d2ff37004200de004e5edd00b5
:1011a0000c007000c258de0001e0a000cf01780002
:1011b0000300e000daff320060001000e080180059
:1011c000d7ff3700f0ff2f00aaff3700f0ff2f00f6
:1011d000b9ff37000404be002f010700870678001e
:1011e0000004fd008104fd002b0107000783660059
:1011f0000678a300030032000960a7000800be00c3
:101200002c0037000d78a300020032000800be0059
:10121000280037000778a30026003a0001f0a1005b
:1012200009f0a1000668a30003003200f1ff2700c7
:10123000f0ff2f00baff37000d68a3000300320053
:101240000800be008c807000b5ff37000768a3005f
:1012500007003a000648a30003003200f1ff270010
:10126000f0ff2f00aeff37000d48a300030032004f
:101270006000b8008c807000a9ff37000748a30009
:101280000400320001f82700000020008c8070006c
:10129000a3ff3700760107000004fd008104fd0074
:1012a00002057800720107000802be008a0178007a
:1012b00059ff37000160a00012022000528b880005
:1012c00097ff37000100e000120032000500e00047
:1012d00010003200889fbe008a9fbe008c9fbe0017
:1012e0000006eb0001f8a3000300320060001000cc
:1012f000e08018000cf0a00005f8a3000300320005
:1013000060021200e0821a000cf0a2008005eb00df
:1013100041ff37006000b800020005000383680049
:101320000700280007036300470ade000480a100cd
:10133000c71ade000580a100f70f20000720e1009a
:10134000420032000728e10040003200889fbe00c2
:101350008a9fbe008c1f7800f107b200f307b2002d
:101360000400e000640032000170a0000500e0000d
:10137000680032000370a00085054200eb07b10051
:101380000204b8000302b8008484440060854a0067
:10139000020ab800848444000a854a00030ab8009f
:1013a00004054500040033000804d0008984d200fd
:1013b0000a85d2008b05e9006158e1003d00350047
:1013c00002102000090161000308200089816100ea
:1013d000f70720008783640008867300c84cde008e
:1013e000c853dd00878474004855de000300e00028
:1013f0000600320082037600040032008904e8000f
:1014000060054d000a88a3000c003a00f70f200089
:101410000758e10044003d000a70a100c75ddd00ef
:101420000a8575008a007300090078004f0678006d
:101430004f05be004f04be00000006000a05d100a3
:101440008984d3008b05e800f0ff3700881f7800ff
:101450000604780090000700070278000001fd00f4
:101460008101fd008c00070087027800850372006f
:101470000778a300050032000001fd008101fd0096
:101480009f0007004f0478000000060085037200eb
:101490000748a30003003200f0ff2f00f1ff2700f0
:1014a000f8ff37000000200001f827008880700056
:1014b000f4ff3700880178004848dd008081710022
:1014c0004848de00c850dd0001007000c850de0052
:1014d000060478000b017800160007008880700071
:1014e000d2ff37000500e0000500320017002000a1
:1014f0003a0007009dff370081037000f9ff3a00b2
:10150000860078004f0678004f05be004f04be00ed
:101510000000050083037100f9ff3200270020005e
:101520002e00070094ff370001f827008680700026
:10153000f4ff37000100e0002600320061011100d5
:101540007810e10023003c006022b8007010e10038
:101550000400350080027800010078008000eb0074
:10156000700151000200e000090034007003110016
:10157000062add00822ade008603dd0087827200f3
:101580000200de00860bdd00070070008208de002e
:1015900084817100f4ff270004826200848171005d
:1015a00004002800848262006102600005f0a60049
:1015b0000000060004827100070032000000e8000d
:1015c000e0804800000006000002be006000b80095
:1015d000efff37006000b80000000600889fbe00e3
:1015e0000004eb006138e10016003a000100e00061
:1015f00008003a00c800de004800dd008800200036
:101600000100e00003003a00c800de004800dd00f1
:10161000680444008184cf00e9845400060034004b
:101620008908dd00f08314008703de0087807000e6
:101630000900dd0009044400610214004f04be00eb
:10164000000006000300e00008003a00c811de00b8
:101650004811dd00880020000300e00003003a008c
:10166000c811de004811dd00680444008384cf0007
:10167000e9845400060034008919dd00f083140069
:101680008713de00878171000911dd000904440021
:10169000e1021400e9ff37002700200001f0a70055
:1016a00017002000470bde00f60fb20004003200e6
:1016b0000643e8000a0032004702b30000000600bb
:1016c00001037800f607b2000603700002003a003a
:1016d0000703b300000006008702b3000000060005
:1016e00001037800f607b200060370000200320022
:1016f0000770a000000006000760a00000000600c0
:101700000478a300040032000578a300030032002f
:101710000168a30001003a000200be000160a000c1
:101720000000060081017000270032008002eb00fb
:1017300001f8a3000300320060001000e0801800f0
:1017400015002000f40720000202420020003400af
:10175000f7032000870360000604200000036300f5
:1017600002082000000161004700de00c909dd0019
:1017700000807100c708de000600e00008003200ab
:1017800087037100060032001000b0000180b00035
:101790000188a30002003200c108de000402e80054
:1017a000f107b200f30f20000320e10003003d0029
:1017b0004722dd00810072002900370001f8270070
:1017c0000000eb00260037006000b80000000600b3
:1017d000680212007f20e100020034006000b800bf
:1017e0001f0037006011b8007020e10004003500d0
:1017f00080017800010078008000eb007002520048
:101800000400e00009003400f00312000719dd00b5
:101810008419de000703dd00868171000400de000c
:10182000070bdd00060070008408de00f7ff2700cc
:1018300083836300870371000600280003036300ad
:10184000070032000700e00003003a006101600079
:1018500002817300020032001000b0000180b0006d
:101860000500a6000000060001f0a0000000060030
:101870004f0ade004709de00f107b200f20fb200a6
:101880000b003200f207b1000170a000c708dd00b4
:10189000c901de00838070004700dd000400a6005f
:1018a0000000060060001000e08018000000060044
:1018b000810f700001003a00000006008182cf0015
:1018c0000500e00010003e008082cf00ee82420062
:1018d0007028e1000400390007003e008000780015
:1018e0000000eb000e003700708312008600de005f
:1018f0000500dd000a003700708352008600dd001d
:101900000000eb0006003700e28252008508dd008f
:10191000708312000603de00868070000500dd0083
:101920007507b0000501ea000400a60000000600eb
:1019300060001000e080180000000600881f78009a
:10194000030478000300e00007003d006000100081
:10195000e080180060011900e081190002003b00de
:1019600001f02d00030037000400070008f0a70075
:1019700001f0a0004f04780000000600889fbe0020
:101980008a9fbe0000827000040271000482710010
:10199000260032000004be000200be006011b80044
:1019a0006b092000950220000182cf000a00390057
:1019b0000541b1000082cf00070039000541b100a8
:1019c0000982cf00040039000541b1000882cf0030
:1019d000010039000541b1000542520012003200f9
:1019e0000a003b0082817100610164008100d10026
:1019f0000080d3008984d3000884d3008b05e800dd
:101a00000442e800f7ff3a000700370008044400ea
:101a100089844c0000004800818048008b05e90063
:101a20000442e900f9ff3a00030007004f05be0039
:101a30004f04be00000006008100200061805500b8
:101a40000b003d000b00200061fe2f000100e100b3
:101a50001d00340082817100610164008904d1009d
:101a60000884d3000000e800faff3a00710020006b
:101a70006100640003007000020060000900320091
:101a800061044400e0844c000988a5000500320090
:101a90008b05e8006808e10002003a008904d100e3
:101aa0000884d300f20f20000258e10005003d0039
:101ab000c75ddd00f907b200898075000800780075
:101ac000000006000bf827008b00780000000500de
:020000040000fa
:101ad0000000000000000000000000008d00000079
:101ae000bc000000eb0000001a01000049010000ea
:101af00077010000a6010000d501000003020000ec
:101b000032020000600200008e020000bc020000f1
:101b1000ea02000017030000440300007203000003
:101b20009f030000cb030000f80300002404000022
:101b3000500400007c040000a7040000d204000050
:101b4000fd04000027050000510500007b05000092
:101b5000a5050000ce050000f70500001f060000e7
:101b6000470600006f06000096060000bd06000054
:101b7000e3060000090700002e07000053070000dd
:101b8000780700009c070000bf070000e307000083
:101b90000508000027080000490800006a08000046
:101ba0008a080000aa080000ca080000e90800002e
:101bb0000709000025090000420900005f09000034
:101bc0007b09000096090000b1090000cb09000064
:101bd000e4090000fd090000160a00002d0a0000bb
:101be000440a00005b0a0000710a0000860a000037
:101bf0009a0a0000ae0a0000c10a0000d30a0000e1
:101c0000e50a0000f60a0000060b0000160b0000b3
:101c1000250b0000330b0000400b00004d0b0000b3
:101c2000590b0000650b00006f0b0000790b0000e2
:101c3000820b00008b0b0000930b00009a0b00003e
:101c4000a00b0000a50b0000aa0b0000ae0b0000cb
:101c5000b20b0000b40b0000b60b0000b70b000085
:101c6000b80b0000b70b0000b60b0000b40b00006f
:101c7000b20b0000ae0b0000aa0b0000a50b000089
:101c8000a00b00009a0b0000930b00008b0b0000d0
:101c9000820b0000790b00006f0b0000650b000049
:101ca000590b00004d0b0000400b0000330b0000ef
:101cb000250b0000160b0000060b0000f60a0000c2
:101cc000e50a0000d30a0000c10a0000ae0a0000c5
:101cd0009a0a0000860a0000710a00005b0a0000f0
:101ce000440a00002d0a0000160a0000fd09000049
:101cf000e4090000cb090000b109000096090000ca
:101d00007b0900005f09000042090000250900006e
:101d100007090000e9080000ca080000aa0800003e
:101d20008a0800006a08000049080000270800002f
:101d300005080000e3070000bf0700009c07000043
:101d400078070000530700002e0700000907000075
:101d5000e3060000bd060000960600006f060000c6
:101d6000470600001f060000f7050000ce05000032
:101d7000a50500007b0500005105000027050000b7
:101d8000fd040000d2040000a70400007c04000051
:101d90005004000024040000f8030000cb030000fe
:101da0009f030000720300004403000017030000bb
:101db000ea020000bc0200008e0200006002000087
:101dc0003202000003020000d5010000a60100005d
:101dd00077010000490100001a010000eb0000003b
:101de000bc0000008d0000000000000000000000aa
:020000040000fa
:101df0000200fa00000f78001e007800e20f500089
:101e00000d003200e30f500014003200e10f5000cb
:101e10001c003a00106180000090a000e3c1200087
:101e200011322400d2bc2a0082097800810978008e
:101e30001061880014003700106280000090a0003c
:101e4000e3c1200011322400d2bc2a0082097800ac
:101e500081097800106288000b0037001063800051
:101e60000090a000e3c1200011322400d2bc2a005f
:101e70008209780081097800106388000000000062
:101e800001003700000000000080fa00000006009a
:101e90000200fa00000f78001e007800e20f5000e8
:101ea0000d003200e30f500014003200e10f50002b
:101eb0001c003a00106180000080a000e3c12000f7
:101ec00011322400d2bc2a008209780081097800ee
:101ed0001061880014003700106280000080a000ac
:101ee000e3c1200011322400d2bc2a00820978000c
:101ef00081097800106288000b00370010638000b1
:101f00000080a000e3c1200011322400d2bc2a00ce
:101f100082097800810978001063880000000000c1
:101f200001003700000000000080fa0000000600f9
:101f30000200fa00000f78001e007800e20f500047
:101f40000d003200e30f500014003200e10f50008a
:101f50001c003a00106180000090a100e3c1200045
:101f600011322400d2bc2a0082097800810978004d
:101f70001061880014003700106280000090a100fa
:101f8000e3c1200011322400d2bc2a00820978006b
:101f900081097800106288000b0037001063800010
:101fa0000090a100e3c1200011322400d2bc2a001d
:101fb0008209780081097800106388000000000021
:101fc00001003700000000000080fa000000060059
:101fd0000200fa00000f78001e007800e20f5000a7
:101fe0000d003200e30f500014003200e10f5000ea
:101ff0001c003a00106180000080a100e3c12000b5
:1020000011322400d2bc2a008209780081097800ac
:102010001061880014003700106280000080a10069
:10202000e3c1200011322400d2bc2a0082097800ca
:1020300081097800106288000b003700106380006f
:102040000080a100e3c1200011322400d2bc2a008c
:102050008209780081097800106388000000000080
:1020600001003700000000000080fa0000000600b8
:102070000000fa000060fe00008480000000e8001c
:102080000084880001848000700c2000808f500044
:10209000080036008030ef0010c0b3003df0b700fc
:1020a00010c0b3003ef0b70010c0b30040f0b7005e
:1020b0002d050700810407003cd0bf00e14f500010
:1020c00002003a00eb0207000100370001eca90012
:1020d000408280000000e80040828800408280004a
:1020e000f40f5000070036004830ef0030828000c7
:1020f0000000e00003003200308280000000e900b0
:10210000308288000080fa00000006000000fa001b
:102110002103070023d0bf000004e00002003200ca
:1021200020c0b30022f0b700107080004a00de002b
:10213000614060000080fb0000f0a7000000ea00a2
:102140000000ea004f00de000040780034f0b700e5
:10215000107080004700de00614060000080fb00de
:1021600000f0a7000000ea000000ea004f00de00d7
:102170000040780035f0b700107080004400de00a9
:10218000614060000080fb0000f0a7000000ea0052
:102190000000ea004f00de000040780036f0b70093
:1021a000907080004900de00614060000080fb000c
:1021b00000f0a7000000ea000000ea004f00de0087
:1021c0000040780037f0b700107180004600de0054
:1021d000614060000080fb0000f0a7000000ea0002
:1021e0000000ea004f00de000040780038f0b70041
:1021f00036d0bf000004e0000300320010c0b3007e
:1022000027f0b700030037002770ef0020c0b300ad
:1022100022f0b70034d0bf000004e0000300320019
:1022200010c0b30028f0b700010037002870ef009d
:1022300022d0bf000080fb00e10f50001c003200e4
:10224000e20f50001f0032000000e0009b003a0047
:10225000208280000000e0000c003a00e084800052
:102260009086880040d0bf00e14f500007003a0040
:102270004070ef0091868000b0f52400010050000e
:10228000c0868800100020002082880010c0b300a3
:102290003cf0b70001eca80010c0b30029f0b70073
:1022a000d804070010c0b30022f0b7008300370045
:1022b00020c0b30029f0b70010c0b30026f0b7006b
:1022c0007e0037000060fe001e30ef004430ef005b
:1022d0003c70ef000a2cef0001eca90020c0b30015
:1022e00026f0b700244ea90027d0bf00e14f5000d0
:1022f00011003a0023d0bf000004e0000e003a00b5
:10230000b08280000000e800b082880050c0b300b6
:1023100029f0b700b1828000f0702200808f500059
:102320000400360078040700052ea9002270ef0093
:102330005630ef005f00370027d0bf00e14f50005c
:1023400056003a0023d0bf000004e00053003200e2
:102350005630ef0023d0bf00e14f500004003a0098
:10236000608380000000e800608388003900370047
:1023700023d0bf00e24f500004003a007083800079
:102380000000e800708388003200370023d0bf00cf
:10239000e34f500004003a00808380000000e80012
:1023a000808388002b00370023d0bf00e44f50000b
:1023b00004003a00908380000000e80090838800c9
:1023c0002400370023d0bf00e54f500004003a003e
:1023d000a08380000000e800a08388001d00370073
:1023e00023d0bf00e64f500004003a00b0838000c5
:1023f0000000e800b08388001600370023d0bf003b
:10240000e74f500004003a00c08380000000e8005d
:10241000c08388000f00370023d0bf00e84f500072
:1024200004003a00d08380000000e800d0838800d8
:102430000800370023d0bf00e94f500004003a00e5
:10244000e08380000000e800e0838800010037009e
:102450002370ef0042d0bf00e14f50000e003a0061
:1024600041d0bf000004e0000b003a005083800020
:102470000000e800508388005183800000e22400bf
:10248000808f50000400360010c0b30041f0b70048
:102490002370ef006a30ef000600370027d0bf003e
:1024a0000004e00004003a002970ef002670ef00fd
:1024b00002003700010037000000000026d0bf00f6
:1024c0000080fb00e10f500008003200e20f5000d6
:1024d000090032000000e00013003a00244ea90079
:1024e000052ea900246ea9000f003700244ea80075
:1024f000052ea9000c003700244ea90023d0bf00f0
:10250000e24f500004003a00052ea80040c0b3007e
:1025100029f0b70004003700052ea90030c0b30031
:1025200029f0b7000000000023d0bf0024f0b7005e
:10253000608280000000e800608288006182800084
:10254000007d2000808f5000600036004c30ef008e
:102550008903070029d0bf000080fb00e20f500074
:1025600021003200e20f500005003c000000e000b6
:102570000a003200e10f50000c0032005300370017
:10258000e40f50003f003200e40f50001a00350005
:10259000e50f50003f0032004c003700252ea80008
:1025a000250ea80024eea8004800370024eea8005d
:1025b000250ea800207180004900de006140600007
:1025c0000004a200614060000080fb006100600028
:1025d0004900dd00217180000190a1000100700020
:1025e0002071880039003700250ea80024eea800cd
:1025f000252ea90035003700252ea8007082800006
:102600000000e8007082880070828000e10f5000b6
:10261000080036004e30ef00808280000000e800a5
:102620008082880080828000eb0f5000010036001d
:102630005030ef0024d0bf000080fb00818280007a
:10264000810f50000d003600207180004800de0030
:10265000614060000004a200614060000080fb0057
:10266000610060004800dd00217180000180a10050
:10267000010070002071880014003700250ea800aa
:1026800012003700252ea800250ea80024eea90070
:102690000e00370024eea800250ea800207180004f
:1026a0004900de00614060000004a200614060005b
:1026b0000080fb00610060004900dd0021718000a6
:1026c0000190a100010070002071880050828000fc
:1026d0000000e8005082880051828000800c2000b9
:1026e000808f5000010036004a30ef00a184800046
:1026f000906c2200808f50000c00360027d0bf0065
:10270000e14f500009003a00f08380000000e8002b
:10271000f0838800f183800000712200808f5000d8
:1027200004003600246ea80002003700246ea900c1
:102730007e30ef000080fa00000006000200fa0080
:10274000000f78009e0078003182880000000000b1
:10275000308280000000e000fdff3a000080fa00b7
:10276000000006000000fa0010c0b30025f0b7001a
:102770000080fa00000006000000fa000018800047
:102780004500dd0060848800101880004500dd00f1
:1027900070848800201880004500dd009084880047
:1027a000301880004500dd008084880040188000db
:1027b0004500dd00a0848800818480009086800030
:1027c0000080500080868800808680000000e00045
:1027d0000300350080868000a08688000300370053
:1027e000808680000000ea00a086880022d0bf001a
:1027f000e24f500007003200a08680001187800061
:10280000810f500004003600a086800010878800e9
:1028100001003700e230ef00a08680006101b900be
:10282000a0878000b18780000201400083814800ba
:10283000f8d0bf000080fb0080004000400e210067
:1028400000804000100078008000eb000000510084
:1028500081805900a0878800b1878800a087800008
:10286000b18780004d09dd004300de0000007100eb
:10287000c308de000000780000878800f8d0bf00a1
:102880008080fb00a28680008201780001814000e8
:10289000410e210081004100830878000040e800db
:1028a000f8f0b700f8d0bf00e74f50000100360045
:1028b000f870ef0001878000c0868000808f500094
:1028c0001200360022d0bf00e14f50000f003a0046
:1028d00042d0bf00e14f500005003a0041d0bf0098
:1028e000e14f500002003a0001eca90040a7a90006
:1028f00023d0bf000004e00004003a0010c0b30081
:1029000042f0b70050c0b30023f0b70060848000ed
:10291000a0858800a08580006101b8000085800046
:1029200011858000020040008380480000858800f7
:10293000118588000285800013858000b0848000a6
:102940008000eb0000005100818059000085880064
:102950001185880000858000118580000219200003
:102960000300200090f8070000007800b084880081
:10297000b1848000f085800000805000508688007f
:1029800070848000b0858800b08580006101b80047
:10299000208580003185800002004000838048004f
:1029a000208588003185880022858000338580005d
:1029b000c08480008000eb0000005100818059003d
:1029c0002085880031858800208580003185800041
:1029d000021920000300200073f8070000007800af
:1029e000c084880090848000c0858800c0858000f5
:1029f0006101b800408580005185800002004000e0
:102a00008380480040858800518588004285800089
:102a100053858000d08480008000eb0000005100ce
:102a2000818059004085880051858800408580005c
:102a30005185800002192000030020005af8070089
:102a400000007800d084880080848000d0858800d1
:102a5000d08580006101b8006085800071858000ac
:102a600002004000838048006085880071858800ee
:102a70006285800073858000e08480008000eb0028
:102a800000005100818059006085880071858800b0
:102a900060858000718580000219200003002000fd
:102aa00041f8070000007800e0848800a0848000de
:102ab000e0858800e08580006101b80080858000a5
:102ac0009185800002004000838048008085880056
:102ad000918588008285800093858000f084800045
:102ae0008000eb0000005100818059008085880043
:102af00091858800808580009185800002192000e2
:102b00000300200028f8070000007800f084880007
:102b1000508680008000eb000cf80700123b21007b
:102b2000f3b12300fdf90700d0878800e187880012
:102b3000d0878000e187800002002000a3472400a6
:102b4000f6f90700e3f70700000078002089880005
:102b5000c08480008000eb00fcf70700a22b23005c
:102b6000d3fd2300edf90700f08788000188880075
:102b7000f087800001888000d6f707000000780009
:102b800010898800d08480008000eb00eff70700f8
:102b90000240210023f82300e0f9070042df2f0064
:102ba00043fb2300ddf90700108888002188880096
:102bb0001088800021888000c6f707000000780098
:102bc0003089880060868000cf80de00dcf7070057
:102bd0000200200083ac2300d0f907003088880071
:102be00041888800308880004188800002002000f1
:102bf000a3472400c9f90700b6f7070000007800d2
:102c000040898800f08480008000eb00cff7070047
:102c1000925c2600e3dc2300c0f90700508888009e
:102c20006188880050888000618880000200200050
:102c3000a33f2400ecf70700020020000312240049
:102c4000d7f80700f088880001898800f0888000a4
:102c50000189800002002000832c2400aff90700c6
:102c60009cf7070000007800508988000080fa0077
:102c7000000006000000fa002ad0bf000080fb0020
:102c8000e10f50001b003200e10f500003003c0038
:102c90000000e0000600320030003700e20f500074
:102ca00017003200e30f5000260032002b003700df
:102cb000238ca90023aca900200020004cfc0700b5
:102cc0002000200072fc07003000200098fc070064
:102cd00030002000befc07003dd0bf00e14f500097
:102ce0001b003a003d70ef0010c0b3002af0b7009f
:102cf0001a00370020c0b3002af0b70017003700d1
:102d0000238ca80023aca8003000200038fc07006a
:102d1000300020005efc07002000200084fc07003b
:102d200020002000aafc07003dd0bf00e14f50006a
:102d300009003a003d70ef0030c0b3002af0b70040
:102d4000060037002a70ef00000000000300370083
:102d50000000000001003700000000000080fa00c1
:102d6000000006000000fa00b0848000f0858800b2
:102d7000c084800000868800d0848000108688008f
:102d80000000240020868800f084800030868800bf
:102d90000080fa00000006000000fa002570ef0035
:102da000b184800000062400808f5000120036009d
:102db0002ed0bf000004e0000f003a00f082800037
:102dc0000000e800f0828800f182800040062000c8
:102dd000808f50002100360023d0bf000004e000a7
:102de0001b003a0040c0b30023f0b70010c0b3008e
:102df0002ef0b70019003700b1848000b019200010
:102e0000808f500010003e002ed0bf00e14f5000d8
:102e10000d003a00f08280000000e800f082880097
:102e2000f182800000e22400808f50000b00360009
:102e30002e70ef0023d0bf00e44f500006003a0090
:102e40002370ef00050037005e30ef00030037000d
:102e5000000000000100370000000000c184800075
:102e6000a0d92300808f5000120036002bd0bf0065
:102e70000004e0000f003a00d08280000000e8006b
:102e8000d0828800d182800000712200808f5000a3
:102e90002100360023d0bf000004e0001b003a00f0
:102ea00010c0b30023f0b70010c0b3002bf0b70080
:102eb00019003700c184800090902300808f50005b
:102ec00010003e002bd0bf00e14f50000d003a0033
:102ed000d08280000000e800d0828800d18280008b
:102ee00000e22400808f50000b0036002b70ef00b2
:102ef00023d0bf00e14f500006003a002370ef00de
:102f0000050037005a30ef000300370000000000d2
:102f10000100370000000000c184800010da2200a8
:102f2000808f500012003e002cd0bf000004e00053
:102f30000f003a00c08280000000e800c0828800d4
:102f4000c182800000712200808f50002100360075
:102f500023d0bf000004e0001b003a0020c0b300f3
:102f600023f0b70010c0b3002cf0b70019003700f1
:102f7000c184800020232300808f50001000360081
:102f80002cd0bf00e14f50000d003a00c0828000fd
:102f90000000e800c0828800c182800000e22400b6
:102fa000808f50000b0036002c70ef0023d0bf0044
:102fb000e24f500006003a002370ef000500370092
:102fc0005830ef0003003700000000000100370018
:102fd00000000000d1848000e07b2400808f50003e
:102fe000120036002dd0bf000004e0000f003a00b0
:102ff000e08280000000e800e0828800e18280003a
:1030000040062000808f50002100360023d0bf00f2
:103010000004e0001b003a0030c0b30023f0b7000a
:1030200010c0b3002df0b70019003700d184800024
:10303000d07b2400808f500010003e002dd0bf00b8
:10304000e14f50000d003a00e08280000000e800ef
:10305000e0828800e182800000e22400808f50003e
:103060000b0036002d70ef0023d0bf00e34f50005f
:1030700006003a002370ef00050037005c30ef00d7
:1030800003003700000000000100370000000000ce
:10309000f1848000906c2200808f50001200360076
:1030a00031d0bf000004e0000f003a001083800020
:1030b0000000e800108388001183800000e22400f3
:1030c000808f50002100360023d0bf000004e000b4
:1030d0001b003a0070c0b30023f0b70010c0b3006b
:1030e00031f0b70019003700f1848000802e2200f3
:1030f000808f500010003e0031d0bf00e14f5000e3
:103100000d003a00108380000000e8001083880062
:103110001183800000e22400808f50000b003600f5
:103120003170ef0023d0bf00e74f500006003a0097
:103130002370ef00050037006230ef000300370016
:1031400000000000010037000000000028d0bf0090
:10315000e14f500012003a0032d0bf000004e000fe
:103160000f003a00208380000000e80020838800e0
:103170002183800000e22400808f50002000360070
:1031800023d0bf000004e0001a003a0080c0b30062
:1031900023f0b70010c0b30032f0b70018003700ba
:1031a00028d0bf000004e00010003a0032d0bf0079
:1031b000e14f50000d003a00208380000000e8003d
:1031c000208388002183800000e22400808f50004b
:1031d0000b0036003270ef0023d0bf00e84f5000e4
:1031e00006003a002370ef00050037006430ef005e
:1031f000030037000000000001003700000000005d
:1032000025d0bf00e14f500012003a0033d0bf007c
:103210000004e0000f003a00408380000000e80056
:103220004083880041838000007d2000808f500013
:103230002000360023d0bf000004e0001a003a004e
:1032400090c0b30023f0b70010c0b30033f0b70054
:103250001800370025d0bf000004e00010003a003d
:1032600033d0bf00e14f50000d003a004083800092
:103270000000e8004083880041838000007d20003a
:10328000808f50000b0036003370ef0023d0bf005a
:10329000e94f500006003a002370ef0005003700a8
:1032a0006830ef0003003700000000000100370025
:1032b000000000000080fa00000006000000fa0094
:1032c0001184800040062000808f500002003600ec
:1032d0004006200010848800f08080000000e0009c
:1032e00001003d001e30ef0000848000800040009f
:1032f00080d62800008040001000780020848800dc
:10330000f08080006101b900208480008000eb0023
:10331000809ab900828bb9008602780005024200cb
:103320000010b80001024200840078003084880058
:10333000418488003084800041848000f2ff2700af
:103340000300200018f60700000078005084880071
:103350005184800080bb2000808f50000200360026
:1033600080bb20005084880050848000506088001a
:103370000080fa00000006000000fa0030c0b30030
:1033800009030700c0c9b3000703070080c1b300e9
:1033900005030700b08480000040780002030700a6
:1033a000b08480004800de0000407800fe02070084
:1033b000c084800000407800fb020700c0848000c9
:1033c0004800de0000407800f7020700d08480004b
:1033d00000407800f4020700d08480004800de003e
:1033e00000407800f0020700e08480000040780090
:1033f000ed020700e08480004800de000040780015
:10340000e9020700f084800000407800e60207002f
:10341000f08480004800de0000407800e2020700ef
:103420008086800000407800df02070080868000f0
:103430004880de0000407800db02070090868000b4
:1034400000407800d8020700908680004880de00a7
:1034500000407800d4020700108780000040780008
:10346000d1020700108780004800de00004078008d
:10347000cd0207000087800000407800ca020700e4
:10348000008780004800de0000407800c602070088
:10349000c086800000407800c3020700c08680001c
:1034a0004800de0000407800bf02070022d0bf00c5
:1034b000bd02070023d0bf00bb02070042d0bf00ff
:1034c000b902070041d0bf00b70207002082800088
:1034d00000407800b402070028d0bf00b202070005
:1034e00028d0bf00b002070028d0bf00ae020700fe
:1034f00028d0bf00ac020700c0cfb300aa0207006b
:103500000080fa00000006000000fa0060152100ab
:10351000a0808800a0ff2100b08088004001210029
:1035200060f50700a0808000711422000108780077
:10353000a08080000080e80061662e00010878000d
:10354000a0808000640040008000eb00010878004b
:10355000908480004500dd00e08088001a30ef0094
:103560000080fa00000006000000fa00601521004b
:10357000a0808800a0ff2100b080880040012100c9
:1035800026f50700c0808000f0808800c0892100f7
:10359000e080880090848000d0808800a080800037
:1035a0007114220001087800a08080000080e800eb
:1035b00061662e0001087800a08080006400400051
:1035c0008000eb0001087800b080800064004000bb
:1035d000e1ff800001087800b08080000080e800f2
:1035e000d1ff800001087800b180800092848000c3
:1035f000c089210002005000800878000080fa0095
:10360000000006000000fa0005003700400120001d
:103610004afc0700e08080000000e800e0808800ad
:10362000e1808000c0892100808f5000f7ff3400c6
:10363000c0892100e08088000080fa0000000600b8
:103640000000fa00fa03070060082100c802070022
:10365000cf02070080032100150307001c030700a9
:10366000203b210031020700c03b21001404070069
:10367000a5ff070024eea800250ea800252ea8000f
:10368000803e20002dfc0700b6fd070040a7a800e3
:10369000ffff37000000fa0007e2a9000080fa00ef
:1036a000000006000000fa002228a8002208a80056
:1036b0000080fa00000006000000fa0010418000bf
:1036c000620060000000e00004003a001041800049
:1036d000610060000000e0000200320010002000e5
:1036e000010037000000eb00004078000080fa0085
:1036f000000006000000fa002228a9002208a90004
:103700000080fa00000006000000fa000228a9006c
:103710000208a9000080fa00000006000000fa007c
:103720000228a8000208a8000080fa000000060095
:103730000200fa00000f7800104080006200600074
:103740000000e00010003a001040800061006000be
:103750000000e0000c003a001040800062006000b1
:103760000000e00008003a001040800061006000a6
:103770000000e00004003a00407621000100200033
:10378000d5030700f4ff37000080fa0000000600b0
:103790000000fa0031108000000028000080600066
:1037a0000000e00007003a000822ef0000042800b3
:1037b00030108800f00820002010880010c0b300ee
:1037c000010037000040eb000080fa000000060016
:1037d0000000fa0031108000000028000080600026
:1037e0000000e00004003a0006c2a80007e2a800ba
:1037f00010c0b300010037000040eb000080fa0069
:10380000000006000000fa000080fa000000060038
:103810000000fa000602a8000080fa00000006007e
:103820000000fa000622a8000080fa00000006004e
:103830000000fa000642a8000080fa00000006001e
:103840000000fa00401080004f00de0000407800c9
:103850000080fb0000f0a7000000ea000000ea0082
:103860004f00de00004078000080fa0000000600f3
:103870000000fa000662a8000080fa0000000600be
:103880000000fa0000108000004078000080fa007c
:10389000000006000200fa00004f78001e80fb00c6
:1038a000101088000080fa00000006000000fa00f6
:1038b00006a2a9000682a8000080fa000000060007
:1038c0000000fa0006a2a8000682a8000080fa0004
:1038d000000006000000fa000782a8000080fa003d
:1038e000000006000000fa00401080006200600046
:1038f0000000e00004003a00401080006100600019
:103900000000e0000200320010002000010037003b
:103910000000eb00004078000080fa000000060084
:103920000000fa00401080004300de0061406000ab
:103930000080fb0000f0a7000000ea000000ea00a1
:103940004f00de00004078000080fa000000060012
:103950000000fa004110800000022000008060009a
:1039600000f0a7000000ea000000e9004f00de00c0
:10397000004078000080fa00000006000000fa0015
:10398000401080004400de00614060000080fb00c9
:1039900000f0a7000000ea000000ea004f00de008f
:1039a000004078000080fa00000006000000fa00e5
:1039b000401080004500de00614060000080fb0098
:1039c00000f0a7000000ea000000ea004f00de005f
:1039d000004078000080fa00000006000000fa00b5
:1039e000401080004200de00614060000080fb006b
:1039f00000f0a7000000ea000000ea004f00de002f
:103a0000004078000080fa00000006000000fa0084
:103a10000942a9000080fa00000006000000fa0038
:103a20000080fa00000006000000fa000080fa00a2
:103a3000000006000000fa000080fa000000060006
:103a40000000fa000080fa00000006000200fa0000
:103a5000000f78009e007800818a88000080fa00bc
:103a6000000006000200fa00000f78009e007800b7
:103a7000918a88000080fa00000006000200fa0027
:103a8000000f78009e007800a18a88000080fa006c
:103a9000000006000000fa00003a80000080fa00f2
:103aa000000006000200fa00faff0700000f78008d
:103ab0001e007800240007000004e000020032002d
:103ac000000028007d0007001e0078002c00070081
:103ad0000004e0000200320000002400770007002c
:103ae0001e007800360007000004e00002003200eb
:103af00000202000710007001e0078004000070031
:103b00000004e00002003200000820006b00070003
:103b10001e0078004a0007000004e00002003200a6
:103b200000042000650007001e0078005400070014
:103b30000004e00002003200000120005f000700e6
:103b40000080fa00000006000400fa008e80e80001
:103b5000800878000040eb00004f78000e80e800fd
:103b6000100078000000e00002003d0010c0b3002b
:103b7000004f78001e4078000080fa000000060028
:103b80000400fa008e80e800800878000040eb0016
:103b9000004f78000e80e8009000780000002400bc
:103ba000008060000000e0000200320010c0b3009e
:103bb000004f78001e4078000080fa0000000600e8
:103bc0000400fa008e80e800800878000040eb00d6
:103bd000004f78000e80e800900078000020200060
:103be000008060000000e0000200320010c0b3005e
:103bf000004f78001e4078000080fa0000000600a8
:103c00000400fa008e80e800800878000040eb0095
:103c1000004f78000e80e800900078000008200037
:103c2000008060000000e0000200320010c0b3001d
:103c3000004f78001e4078000080fa000000060067
:103c40000400fa008e80e800800878000040eb0055
:103c5000004f78000e80e8009000780000042000fb
:103c6000008060000000e0000200320010c0b300dd
:103c7000004f78001e4078000080fa000000060027
:103c80000400fa008e80e800800878000040eb0015
:103c9000004f78000e80e80010007800700060008f
:103ca0000000e0000200320010c0b300004f7800b6
:103cb0001e4078000080fa00000006000200fa00b2
:103cc000000f78001e80ea00013a800001006000c9
:103cd000003a88000080fa00000006000000fa00a8
:103ce0004027ef000080fa00000006000000fa0004
:103cf000022cef0080bb20002060880000ee220034
:103d0000306088000a2cef001a2cef001e2cef0008
:103d100040302000006188004030200000628800b0
:103d2000403021000063880000002c00e3c1200027
:103d300011322400d2bc2a0082097800810978005f
:103d40001061880000042c00e3c12000113224001f
:103d5000d2bc2a00820978008109780010628800ac
:103d600000042c00e3c1200011322400d2bc2a0040
:103d700082097800810978001063880030002000f3
:103d8000e3c1200011322400d2bc2a00820978004d
:103d9000810978002061880030002000e3c1200004
:103da00011322400d2bc2a008209780081097800ef
:103db0002062880030002000e3c12000113224007e
:103dc000d2bc2a008209780081097800206388002b
:103dd0006009200030618800462cef00662cef005f
:103de00080bb20004061880080bb200040628800ca
:103df00080bb200040638800800c20005061880058
:103e0000800c200050628800800c200050638800e5
:103e1000800c200060618800800c200060628800b7
:103e2000800c200060638800322cef00522cef00e1
:103e3000722cef00342cef00542cef00742cef00a8
:103e40003a2cef005a2cef007a2cef003c2cef00bc
:103e50005c2cef007c2cef003e2cef005e2cef0082
:103e60007e2cef0000f92100300007000c08a900ab
:103e70002c08a80000102800006088000080fa00cc
:103e8000000006000000fa000080fa0000000600b2
:103e90000000fa0031408000002020000080600017
:103ea0000000e00002003200f6ff07000728a9002a
:103eb0000080fa00000006000000fa000080fa000e
:103ec000000006000000fa003140800000202000c1
:103ed000008060000000e00002003200f6ff0700f2
:103ee0000bc8a9000080fa00000006000000fa00dc
:103ef0000080fa00000006000000fa003140800057
:103f000000202000008060000000e000020032007d
:103f1000f6ff07000be8a9000080fa000000060089
:103f20000000fa000080fa00000006000200fa001b
:103f3000000f78001e007800308b88000080fa00a7
:103f4000000006000000fa00800020000011880038
:103f50002222ef00606120004011880021e2a800c9
:103f60002342a8000080fa00000006000000fa00ca
:103f70000000000010118000610060000000e000ff
:103f8000fcff320010118000620060000000e000c1
:103f9000010032002222a900301180000040780088
:103fa0000080fa00000006000200fa00004f7800ce
:103fb000000000001111800000202000008060003f
:103fc0000000e000fbff3a001e80fb00201188008b
:103fd0000080fa00000006000000fa0010118000c6
:103fe00000407800614060000080fb0000f0a70006
:103ff0000000ea000000ea004f00de000040780008
:104000000080fa00000006000000fa001111800094
:1040100000102000008060000000e0000700320077
:104020001111800000402000008060000000e000ce
:104030000200320010002000010037000000eb00f9
:10404000004078000080fa00000006000000fa003e
:10405000101180004800de00614060000080fb001d
:1040600000f0a7000000ea000000ea004f00de00b8
:10407000004078000080fa00000006000000fa000e
:10408000101180000080fa00000006000000fa0015
:10409000d1ff07000080fa00000006000000fa00cf
:1040a000d9ff07000080fa00000006000000fa00b7
:1040b000c9ff07000080fa00000006000000fa00b7
:1040c000e2ff07000080fa00000006000000fa008e
:1040d0000621ef00c02e20006008880000012800a3
:1040e00080088800e08a80000000e00002003a00ba
:1040f000200b22001e00070000e8a90020e8a8000d
:104100005e71ef000080fa00000006000200fa0075
:10411000000f78009e007800610888005e71ef0053
:104120000080fa00000006000000fa00600880002d
:104130000080fa00000006000200fa00000f78007c
:104140009e007800310888005e71ef000080fa0060
:10415000000006000000fa00300880000080fa002d
:10416000000006000000fa000080fa0000000600cf
:104170000200fa00000f780020e8a9009e007800f5
:10418000e18a880020e8a8000080fa00000006000c
:104190000000fa005e71ef0020e8a80011e1a8001d
:1041a0000080fa00000006000000fa0011e1a900fa
:1041b00020e8a9000080fa00000006000200fa00d2
:1041c000e115210091407800014f78001e407800f1
:1041d0000004e000010032005e71ef001e40780034
:1041e0000080fa00000006000000fa005fd1bf0066
:1041f0000080fb000080fa00000006000000fa00ca
:104200005f71ef000080fa00000006000000fa0075
:104210000a21ef0010bb2000700888000000280071
:1042200090088800008b80000000e00002003a0047
:10423000201522001e0007000108a9002108a8007f
:104240006271ef000080fa00000006000200fa0030
:10425000000f78009e007800710888006271ef00fe
:104260000080fa00000006000000fa0070088000dc
:104270000080fa00000006000200fa00000f78003b
:104280009e007800510888006271ef000080fa00fb
:10429000000006000000fa00500880000080fa00cc
:1042a000000006000000fa000080fa00000006008e
:1042b0000200fa00000f78002108a9009e00780093
:1042c000018b88002108a8000080fa000000060089
:1042d0000000fa006271ef002108a80013e1a800b5
:1042e0000080fa00000006000000fa0013e1a900b7
:1042f0002108a9000080fa00000006000200fa0070
:104300002116210091407800014f78001e4078006e
:104310000004e000010032006271ef001e407800ee
:104320000080fa00000006000000fa0063d1bf0020
:104330000080fb000080fa00000006000000fa0088
:104340006371ef000080fa00000006000000fa0030
:10435000042eef00142eef00242eef0070592000e1
:1043600000708800f02f2000807088003007200047
:10437000007188000c2eef001c2eef002c2eef0099
:104380000a2eef001a2eef002a2eef00062eef0065
:10439000162eef00262eef003000200070708800ef
:1043a000f0002000f070880030002000707188005c
:1043b000113a8000f00b20000081600060042000b2
:1043c000710520002374200080497800814978001d
:1043d00082497800c135800000f82f00008060001d
:1043e0008001b300c03588003134800000fc2f000c
:1043f000008060000000a00030348800213680007a
:1044000000f82f0080806000700220000100700022
:1044100020368800103a8000000178000260a00079
:10442000600420007105200023742000804978007a
:1044300081497800824978000080fa000000060077
:104440000000fa0000002300203a88004827ef000f
:104450004e27ef00f0032000303a88006027ef007d
:104460006227ef006427ef006627ef006a27ef005e
:104470006c27ef001200200080072000a109200017
:10448000337420008049780081497800824978009f
:104490001200200060042000710520002374200019
:1044a0008049780081497800824978000000000046
:1044b000103a8000610060000000e000fcff3a005c
:1044c00000000000113a800000022000008060001f
:1044d0000000e000fbff32000080fa000000060050
:020000040000fa
:1044e000641100000200000082000000ffff0000d5
:1044f0003011000020000000800000006611000064
:1045000002000000800000006811000002000000ae
:10451000800000005c11000004000000800000002a
:104520006011000004000000800000005011000035
:1045300006000000800000000010000030010000b4
:1045400080000000561100000600000080000000fe
:10455000fa1f000006000000800000006a11000041
:0c456000020000008000000000000000cd
:020000040000fa
:10456c000000fa008143800080ff2f000080600073
:10457c000000a0008043880031428000f0f82f003a
:10458c00808060000005200001007000304288002f
:10459c0041428000f0f82f00008060000040a00035
:1045ac00404288004142800080ff2f000080600064
:1045bc000000a000404288002142800080ff2f00b4
:1045cc00008060006000b30020428800114280002f
:1045dc00f0ff28000080600000e0a000104288007e
:1045ec000080fa00000006000200fa00000f7800bc
:1045fc0021028000200f2000008060001e0070004f
:10460c00200288000080fa00000006000000fa007a
:10461c00c3e8a80000000000000000000080fa00c1
:10462c00000006000000fa0045ff0700ccff070061
:10463c0080ff070040fe070008000700f0fe07009f
:10464c00a7fd07009efe0700f0ff070000022000f8
:10465c00e5ff07000080fa00000006000000fa00e9
:10466c00600428000019880080412000101988007f
:10467c0040102000201988002823ef0000002c0097
:10468c0070198800f01c2000801988003223ef007c
:10469c002623ef00a03522000600070021a8a80061
:1046ac000080fa00000006000000fa000080fa000a
:1046bc00000006000200fa00000f78001e007800cf
:0c46cc00408b88000080fa00000006000f
:020000040000fa
:1046d800f03fb1000180b10006003500ee0309008b
:1046e80000000000403fb1000180b100fbff3d0029
:1046f8001000b000203fb000020035000080090023
:084708000000000000000600a3
:020000040000fa
:104710000200fa00000f78009e007800218b8800cc
:10472000ffff37000000fa00001321008007780027
:1047300080142100000188000080fa0000000600bb
:020000040000fa
:04afe000ceff0000a0
:020000040000fa
:04afe400ffff00006b
:020000040000fa
:04afe80065ff000001
:020000040000fa
:04afec007bff0000e7
:020000040000fa
:04aff00038ff000026
:020000040000fa
:04aff400ffffff005c
:00000001FF
